:100000000C9462000C947F000C947F000C947F0091
:100010000C947F000C947F000C947F000C9445039B
:100020000C947F000C947F000C947F000C947F0054
:100030000C947F000C947F000C947F000C947F0044
:100040000C94FB020C947F000C947F000C947F00B6
:100050000C947F000C947F000C947F000C947F0024
:100060000C947F000C947F00000000002400270007
:100070002A000000000023002600290000000008DC
:10008000000201000003040700000000000000005F
:10009000010204081020408001020408102001021F
:1000A0000408102000000000250028002B00040494
:1000B0000404040404040202020202020303030310
:1000C0000303020011241FBECFEFD8E0DEBFCDBF77
:1000D00011E0A0E0B1E0EEEBF9E002C005900D9276
:1000E000A230B107D9F721E0A2E0B1E001C01D9232
:1000F000AC31B207E1F70E94A1030C94DD040C942B
:100100000000833081F028F4813099F08230A9F02A
:1001100008958730A9F08830C9F08430B1F4809117
:1001200080008F7D03C0809180008F778093800056
:10013000089584B58F7784BD089584B58F7DFBCFF6
:100140008091B0008F778093B00008958091B000C7
:100150008F7DF9CFCF93DF93282F30E0F901E4585A
:10016000FF4F8491F901E057FF4FD491F901E25517
:10017000FF4FC491CC23A1F081110E948100EC2F8C
:10018000F0E0EE0FFF1FEE58FF4FA591B491EC91F8
:10019000ED2381E090E009F480E0DF91CF910895B4
:1001A00080E090E0FACF1F93CF93DF93282F30E0C9
:1001B000F901E458FF4F8491F901E057FF4FD491C2
:1001C000F901E255FF4FC491CC23A9F0162F8111FC
:1001D0000E948100EC2FF0E0EE0FFF1FEC55FF4F67
:1001E000A591B4918FB7F894EC91111108C0D095F6
:1001F000DE23DC938FBFDF91CF911F910895DE2B1B
:10020000F8CFCF93DF9390E0FC01E057FF4F2491AC
:1002100082559F4FFC0184918823D1F090E0880F94
:10022000991FFC01E859FF4FA591B491FC01EC55D1
:10023000FF4FC591D49161110EC09FB7F8948C9176
:10024000E22FE0958E238C932881E223E8839FBFE1
:10025000DF91CF9108958FB7F894EC91E22BEC9356
:100260008FBFF6CF8F929F92AF92BF92CF92DF92C5
:10027000EF92FF92CF934B0190910001891769F0A3
:100280009F3F09F47FC0CF91FF90EF90DF90CF9018
:10029000BF90AF909F908F900895E2ECF0E0C491F2
:1002A000C7FDF1CF61E00E940101CC2319F0C230FB
:1002B00009F0E1C0B12CA12C60E072E18AE790E086
:1002C000A50194010E949C0469017A0168E478EE1A
:1002D00081E090E0A50194010E949C042150310925
:1002E00041095109CC2309F42AC1C23009F025C1C2
:1002F00084E02F3F310541055105A9F1A4F164E2E5
:1003000074EF80E090E0A50194010E949C042150CC
:1003100031094109510985E02F3F3105410551055A
:1003200011F108F162E17AE780E090E0A501940123
:100330000E949C04215031094109510986E02F3F58
:1003400031054105510579F074F08AE0F594E794A0
:10035000D794C7948A95D1F7A70196012150310906
:100360004109510987E09091B100987F892B8093D2
:10037000B100C13009F4AAC0C23009F4BCC0C11137
:1003800082CFFBC080930001E2ECF0E0C491CF3F4C
:1003900009F479CFC13039F148F0C23009F445C0D1
:1003A000C7FD71CF61E00E94010181CF14BC15BC73
:1003B00094B5926094BD95B5916095BD282F30E0BD
:1003C000F901E255FF4FE491F0E0EE0FFF1FEC550D
:1003D000FF4F45915491F901E057FF4FE491E093AD
:1003E0000F01C0E05FCF10928000109281009091C9
:1003F000810098609093810090918100916090932A
:100400008100282F30E0F901E255FF4FE491F0E040
:10041000EE0FFF1FEC55FF4F45915491F901E05746
:10042000FF4FE491E0930E013DCF1092B000109287
:10043000B1009091B00092609093B0009091B100A3
:1004400091609093B100282F30E0F901E255FF4F01
:10045000E491F0E0EE0FFF1FEC55FF4F45915491F2
:1004600050930D0140930C01F901E057FF4FE491C7
:10047000E0930B0117CFB12CA12C60E072E18AE769
:1004800090E0A50194010E949C042150310941098A
:10049000510991E02115310581E0480751056CF0C3
:1004A00068E478EE81E090E0A50194010E949C044C
:1004B000215031094109510993E0C13009F059CF68
:1004C00080918100887F892B8093810030938900FF
:1004D000209388008FEF9FEFDC01809314019093AD
:1004E0001501A0931601B093170180916F008260EF
:1004F00080936F00C8CE2093B3008FEF9FEFDC0195
:100500008093100190931101A0931201B0931301F5
:1005100080917000826080937000B5CE9AE0F5946F
:10052000E794D794C7949A95D1F7A70196012150E3
:1005300031094109510995E01CC084E0EDCE93E0FA
:100540002F3F310541055105A1F09CF062E17AE7AA
:1005500080E090E0A50194010E949C0421503109A3
:10056000410951092F3F31054105510509F0B4F604
:1005700094E085B5887F892B85BD27BD8FEF9FEFE0
:10058000DC018093180190931901A0931A01B09394
:100590001B0180916E00826080936E0074CE9091FA
:1005A000000189130BC0E2ECF0E0E4919FEF90931F
:1005B0000001E13049F028F0E23061F060E00C9495
:1005C000D30010926E00FACF90916F009D7F9093B0
:1005D0006F00F4CF909170009D7F9093700091E038
:1005E0009093B0009091B100987F94609093B10087
:1005F0001092B300E3CF1F920F920FB60F92112407
:100600002F933F938F939F93AF93BF938091070155
:1006100090910801A0910901B0910A013091060161
:1006200023E0230F2D3758F50196A11DB11D20930E
:1006300006018093070190930801A0930901B093EC
:100640000A018091020190910301A0910401B091EF
:1006500005010196A11DB11D809302019093030134
:10066000A0930401B0930501BF91AF919F918F9129
:100670003F912F910F900FBE0F901F90189526E875
:10068000230F0296A11DB11DD2CF1F920F920FB65C
:100690000F9211242F933F934F935F936F937F9308
:1006A0008F939F93AF93BF93EF93FF93809110012C
:1006B00090911101A0911201B0911301892B8A2B05
:1006C0008B2BD1F190910B01E0910C01F0910D0178
:1006D0008081892780838091100190911101A091E0
:1006E0001201B0911301181619061A061B069CF484
:1006F0008091100190911101A0911201B09113010C
:100700000197A109B1098093100190931101A09361
:100710001201B0931301FF91EF91BF91AF919F919F
:100720008F917F916F915F914F913F912F910F909A
:100730000FBE0F901F901895809100010E94CF026C
:10074000EACF789484B5826084BD84B5816084BD2D
:1007500085B5826085BD85B5816085BD80916E005F
:10076000816080936E001092810080918100826090
:1007700080938100809181008160809381008091CD
:1007800080008160809380008091B10084608093BC
:10079000B1008091B00081608093B00080917A00B8
:1007A000846080937A0080917A00826080937A00DE
:1007B00080917A00816080937A0080917A008068CD
:1007C00080937A001092C10061E08BE00E940101E9
:1007D00060E088E00E94010161E088E00E94D300AF
:1007E00060E087E00E94010161E087E00E94D300A1
:1007F00060E086E00E94010161E086E00E94D30093
:1008000060E085E00E94010161E085E00E94D30084
:1008100060E084E00E94010161E084E00E94D30076
:1008200060E083E00E94010161E083E00E94D30068
:1008300060E082E00E94010161E082E00E94D3005A
:1008400060E08BE00E94D300C0E0D0E088E00E942E
:10085000AA00892B51F466E071E08AE00E9432011F
:1008600061E08BE00E94D300F1CF87E00E94AA00F4
:10087000892B51F466E271E08AE00E94320161E066
:100880008BE00E94D300F1CF86E00E94AA00892B62
:1008900051F46AE471E08AE00E94320161E08BE089
:1008A0000E94D300F1CF85E00E94AA00892B51F469
:1008B0006DE571E08AE00E94320161E08BE00E9408
:1008C000D300F1CF84E00E94AA00892B51F468E89C
:1008D00071E08AE00E94320161E08BE00E94D30067
:1008E000F1CF83E00E94AA00892B51F46CE270E002
:1008F0008AE00E94320161E08BE00E94D300F1CFD8
:1009000082E00E94AA00892B51F46DEE71E08AE02A
:100910000E94320161E08BE00E94D300F1CF8AE0B7
:100920000E94CF0260E08BE00E94D300209709F480
:100930008DCF0E9400008ACF052E97FB1EF40094F5
:100940000E94B30457FD07D00E94BB0407FC03D0EC
:100950004EF40C94B30450954095309521953F4F3B
:100960004F4F5F4F089590958095709561957F4F9B
:100970008F4F9F4F0895A1E21A2EAA1BBB1BFD01AA
:100980000DC0AA1FBB1FEE1FFF1FA217B307E4076E
:10099000F50720F0A21BB30BE40BF50B661F771FC6
:1009A000881F991F1A9469F76095709580959095A6
:0E09B0009B01AC01BD01CF010895F894FFCF6B
:0209BE00FF0038
:00000001FF
