:100000000C9463000C948B000C948B000C948B006C
:100010000C948B000C948B000C948B000C948B0034
:100020000C948B000C948B000C948B000C945E034E
:100030000C948B000C948B000C948B000C948B0014
:100040000C9414030C948B000C948B000C948B0078
:100050000C948B000C948B000C948B000C948B00F4
:100060000C948B000C948B000000000024002700EF
:100070002A0000000000250028002B0000000000DE
:1000800023002600290004040404040404040202DA
:100090000202020203030303030301020408102007
:1000A0004080010204081020010204081020000012
:1000B0000008000201000003040700000000000027
:1000C0000000AC063A0711241FBECFEFD8E0DEBF18
:1000D000CDBF11E0A0E0B1E0EEEFF3E102C005908A
:1000E0000D92A832B107D9F721E0A8E2B1E001C032
:1000F0001D92AD3DB207E1F710E0C2E6D0E004C0CA
:100100002197FE010E94EC07C136D107C9F70E9472
:100110001F040C94F2090C940000CF92DF92EF922E
:10012000FF92DC01A03282E0B8070CF03EC0B7FDC0
:1001300006C0A53BB1052CF0A4EBB0E002C0A0E0E6
:10014000B0E08091D70128E830E06901C81AD108F1
:1001500087FDD394CC0CDD1CCC0CDD1C0D2C000CCD
:10016000EE08FF088091D80128E532E0281B31090C
:1001700087FD3395220F331F220F331FA901330F41
:10018000660B770B9A01AB012C193D094E095F09EB
:100190000E94700724EB30E040E050E00E944607E8
:1001A000C20ED31EE41EF51ED6019091D6019C30DE
:1001B00098F58091D70148E850E0481B510987FD28
:1001C0005395440F551F440F551FA417B5078CF0C6
:1001D0008091D80128E532E0281B310987FD33954D
:1001E000220F331F220F331FAD012A173B070CF4D8
:1001F000A90142505109440F551F2FB7F894892F78
:1002000090E0FC01EE0FFF1F8E0F9F1FFC01EE54CC
:10021000FE4F528341832FBFFF90EF90DF90CF902E
:10022000089596E0899FD0011124AD5BBE4F909652
:100230007C936E935F9791E091969C9391979091A8
:10024000AF01E091B001F091B101992339F03097FD
:1002500051F0811108C080915F0104C0309719F0FE
:100260005C968C9109940895833081F028F4813054
:1002700099F08230A1F008958730A9F08830B9F064
:100280008430D1F4809180008F7D03C08091800004
:100290008F7780938000089584B58F7702C084B5EE
:1002A0008F7D84BD08958091B0008F7703C08091C9
:1002B000B0008F7D8093B0000895CF93DF93282FF7
:1002C00030E0F901E255FF4F8491F901E656FF4F06
:1002D000D491F901EA57FF4FC491CC2391F08111D9
:1002E0000E943401EC2FF0E0EE0FFF1FE458FF4FA7
:1002F000A591B491EC91ED2381E090E021F480E0B0
:1003000002C080E090E0DF91CF9108951F93CF93DA
:10031000DF93282F30E0F901E255FF4F8491F90176
:10032000E656FF4FD491F901EA57FF4FC491CC2311
:10033000C1F0162F81110E943401EC2FF0E0EE0F76
:10034000FF1FEE58FF4FA591B4919FB7F89411117C
:1003500004C08C91D095D82302C0EC91DE2BDC93A5
:100360009FBFDF91CF911F910895CF93DF9390E0CE
:10037000FC01E656FF4F2491FC01EA57FF4F8491A0
:10038000882361F190E0880F991FFC01E859FF4F25
:10039000C591D491FC01EE58FF4FA591B491611124
:1003A00009C09FB7F8948881209582238883EC91B7
:1003B0002E230BC0623061F49FB7F8948881322FEE
:1003C000309583238883EC912E2B2C939FBF06C0FE
:1003D0008FB7F894E8812E2B28838FBFDF91CF91C0
:1003E00008953FB7F89480913F0190914001A0910A
:1003F0004101B091420126B5A89B05C02F3F19F0DD
:100400000196A11DB11D3FBFBA2FA92F982F882794
:10041000820F911DA11DB11DBC01CD0142E0660FEF
:10042000771F881F991F4A95D1F708958F929F9241
:10043000AF92BF92CF92DF92EF92FF926B017C015D
:100440000E94F1014B015C01C114D104E104F104EB
:10045000F1F00E94F101DC01CB0188199909AA0988
:10046000BB09883E9340A105B10570F321E0C21A93
:10047000D108E108F10888EE880E83E0981EA11CDF
:10048000B11CC114D104E104F10419F7DDCFFF90D0
:10049000EF90DF90CF90BF90AF909F908F90089596
:1004A0002FB7F89460913B0170913C0180913D0120
:1004B00090913E012FBF08950F931F93CF93DF9329
:1004C000C82FD62F86E0C89FF0011124ED5BFE4FA8
:1004D00011A2878D90A181309105D9F040F0823032
:1004E0009105A9F10397F1F560E070E034C066234F
:1004F000C9F161E070E08C2F0E9411010E9450024E
:1005000060939B0170939C0180939D0190939E0149
:1005100029C00E94500200919B0110919C012091E2
:100520009D0130919E01AB01BC01401B510B620B40
:10053000730B8091AD019091AE01A0E0B0E0841703
:100540009507A607B70718F462E070E004C0D11160
:1005500009C063E070E08C2FDF91CF911F910F9164
:100560000C941101DF91CF911F910F910895862F67
:10057000642F0C94B501862F642F0C948601862F6E
:100580000C945D010F931F93CF93DF93EC0188814F
:100590009981009729F02A813B812617370788F433
:1005A0008B016F5F7F4F0E941309009761F0998361
:1005B00088831B830A832C813D81232B11F4FC014A
:1005C000108281E001C080E0DF91CF911F910F91F7
:1005D0000895EF92FF920F931F93CF93DF93EC0157
:1005E0007B018A01BA010E94C202288139818111EE
:1005F0000DC02115310519F0C9010E948A08198220
:1006000018821D821C821B821A8206C01D830C83E5
:10061000B701C9010E94EB09CE01DF91CF911F9173
:100620000F91FF90EF9008951F920F920FB60F92C7
:1006300011242F933F938F939F93AF93BF938091F8
:100640003B0190913C01A0913D01B0913E01309160
:100650003A0123E0230F2D3720F40196A11DB11D8F
:1006600005C026E8230F0296A11DB11D20933A0173
:1006700080933B0190933C01A0933D01B0933E01D8
:1006800080913F0190914001A0914101B0914201C0
:100690000196A11DB11D80933F0190934001A0934D
:1006A0004101B0934201BF91AF919F918F913F91D2
:1006B0002F910F900FBE0F901F9018951F920F92C1
:1006C0000FB60F9211242F933F934F935F936F9325
:1006D0007F938F939F93AF93BF93EF93FF938091FB
:1006E000290187FF05C010928500109284001BC06D
:1006F00020912901022E000C330B8091280190E0FB
:100700002817390784F480912901082E000C990BD1
:10071000FC01EE0FFF1F8E0F9F1FFC01EE54FE4FDA
:10072000808186FD15C0809129018F5F809329010A
:1007300020912901022E000C330B8091280190E0BA
:1007400028173907C4F4809129018C3064F113C053
:1007500080912901082E000C990BFC01EE0FFF1F60
:100760008E0F9F1FFC01EE54FE4F808160E08F735F
:100770000E948601D8CF80918400909185000496D4
:1007800080349C4918F480E49CE905C08091840081
:1007900090918500049690938900809388008FEF54
:1007A000809329013BC02091840030918500809185
:1007B0002901082E000C990BFC01EE0FFF1F8E0F74
:1007C0009F1FFC01EE54FE4F81819281820F931F87
:1007D000909389008093880080912901082E000C55
:1007E000990BFC01EE0FFF1F8E0F9F1FFC01EE54B3
:1007F000FE4F808186FF12C080912901082E000CD7
:10080000990BFC01EE0FFF1F8E0F9F1FFC01EE5492
:10081000FE4F808161E08F730E948601FF91EF910E
:10082000BF91AF919F918F917F916F915F914F9108
:100830003F912F910F900FBE0F901F901895CF935F
:10084000DF9300D0CDB7DEB7789484B5826084BDE5
:1008500084B5816084BD85B5826085BD85B58160C4
:1008600085BD80916E00816080936E001092810042
:1008700080918100826080938100809181008160FD
:1008800080938100809180008160809380008091BE
:10089000B10084608093B1008091B000816080934A
:1008A000B00080917A00846080937A0080917A0011
:1008B000826080937A0080917A00816080937A00D0
:1008C00080917A00806880937A001092C1008091B4
:1008D000D6018C3008F051C061E08DE00E94B50176
:1008E0008091D601E82FF0E09F01220F331FE20F25
:1008F000F31FEE54FE4F9081907C9D609083109288
:10090000D7011092D8016CE00E94E0072CE0829F92
:10091000B001112440E050E09B01240F351FF90184
:10092000EE0FFF1F2E0F3F1FF901EE54FE4F908177
:1009300096FD16C04F5F5F4F4C30510569F781112E
:100940000FC01092800082E0809381001092850099
:1009500010928400B19A80916F00826080936F0042
:10096000E091D601F0E0CF01880F991FE80FF91F41
:10097000EE54FE4F80818064808361E08AE00E94B3
:10098000B50161E08BE00E94B501412C512C320190
:1009900043945FE7A52E51E0B52E31E03093AF01CF
:1009A0000E94500200919F011091A0012091A1018D
:1009B0003091A201AB01BC01401B510B620B730BC8
:1009C0008091AB019091AC01A0E0B0E08417950755
:1009D000A607B70708F0E3C010E08091A901181737
:1009E00010F0312C42C0E091A501F091A601E10F79
:1009F000F11D62E080810E94B5011F5FEECF022DE4
:100A000010E0E091A501F091A601E00FF11F8081B7
:100A10000E945D010C5F1F4F000F111FF801ED5B7D
:100A2000FE4F892B09F04BC080819181882999293B
:100A30009183808323948091A901281600F3E0918B
:100A4000A701F091A801EE0DFF1D61E080810E94D9
:100A500086018091A7019091A801FC01EE0DFF1D78
:100A600060E080810E94B50133948091AA0138161C
:100A700058F5E32CF12CE091A701F091A801EE0DBF
:100A8000FF1D61E080810E94B501E091A701F09116
:100A9000A801EE0DFF1D60E080810E948601D30158
:100AA000C201032C04C0880F991FAA1FBB1F0A9400
:100AB000D2F74C016C01C094D094212CBCCF808122
:100AC00091818C219D21B4CF03E411E0F801878D41
:100AD00090A1892B31F4148E8FEF9FEF968F858F25
:100AE00011A23696AE16BF0691F7D12C8091A901BE
:100AF000D81670F5C12CED2CF12CC701880F991F69
:100B0000FC01E55BFE4F7F012091AA01C216F0F4C3
:100B1000F701408151810C2C02C0569547950A94EB
:100B2000E2F7642F6170D29E900111242C0D311DCB
:100B3000E3E4F1E080E0A58DB68D2A173B0709F4C8
:100B400001C18F5F36968A30B1F7DFC0D394CECF24
:100B5000F12CF80181A1882311F0FF24F3940A5F9E
:100B60001F4FA016B106A9F70E94500260939F0183
:100B70007093A0018093A1019093A201FF2079F0CE
:100B800080916401882359F0809162019091630102
:100B9000019729F4F0905F01F11004C091C0109208
:100BA000AF018EC00E9450026093360170933701EE
:100BB00080933801909339010091340110913501EF
:100BC000F0E2FF1631F12BE3F21619F133E2F316DE
:100BD00001F1F9821A820F5F1F4FB80180E391E0A3
:100BE0000E94C202882309F46BC020913001309129
:100BF00031018091340190913501BE016F5F7F4FCB
:100C0000820F931F0E94EB0910933501009334016A
:100C100057C080912E0190912F0108171907D1F527
:100C2000809130019091310160912A0170912B01E6
:100C3000009719F061157105A1F46115710549F06E
:100C4000012B99F0FB01808190E0919581959109AC
:100C50000AC0009751F0012B41F0FC01808190E027
:100C600002C00E94E209892BA9F484EB90E00E9463
:100C70008D0061E08BE00E94860160ED77E080E00E
:100C800090E00E9416028AE590E00E948D0060E0EC
:100C90008BE014C040E050E067E271E080E391E057
:100CA0000E94E90261E08AE00E94860168EE73E03A
:100CB00080E090E00E94160260E08AE00E948601D7
:100CC0000E945002009136011091370120913801A5
:100CD00030913901DC01CB01801B910BA20BB30BCE
:100CE00089389341A105B10540F040E050E067E24A
:100CF00071E080E391E00E94E90220E030E0232BE4
:100D000009F44BCE0E94000048CE40FF1DC0E3E432
:100D1000F1E080E090E0448D411118C0E091A30122
:100D2000F091A401E20FF31F408156E0589FF001BB
:100D3000599FF00D1124ED5BFE4F448F368F258FA8
:100D400010A2178E0E945C02C394DECE01963696E6
:100D50008A30910501F7F8CF1092450110924901B0
:100D60001092480110924A018DE191E09093440164
:100D700080934301E3E4F1E0148E10A2178E11A2D8
:100D8000369681E0EF37F807B9F783E091E090936A
:100D9000A6018093A50180E091E09093A801809343
:100DA000A70184E08093A90183E08093AA0187E0F2
:100DB00091E09093A4018093A3018AE090E0909346
:100DC000AC018093AB0184EF91E09093AE018093EE
:100DD000AD011092B1011092B00110929F011092DA
:100DE000A0011092A1011092A2011092AF01809176
:100DF00028018C30A0F491E0980F90932801809303
:100E0000D60190E0FC01EE0FFF1F8E0F9F1FFC012B
:100E1000EE54FE4F88EB9BE09283818303C08FEFFB
:100E20008093D6011092310110923001109233015B
:100E300010923201109235011092340140E050E0DE
:100E400067E271E080E391E00E94E90210922B01D9
:100E500010922A0110922D0110922C0110922F0154
:100E600010922E0144E050E063E271E08AE291E0EA
:100E70000C94E90280912A0190912B010E948A082A
:100E800080913001909131010C948A08052E97FBD6
:100E90001EF400940E945D0757FD07D00E94AF0723
:100EA00007FC03D04EF40C945D07509540953095A7
:100EB00021953F4F4F4F5F4F0895909580957095C6
:100EC00061957F4F8F4F9F4F08950E94D107A59F37
:100ED000900DB49F900DA49F800D911D1124089535
:100EE000B7FF0C9465070E946507821B930B08955A
:100EF0002F923F924F925F926F927F928F929F922A
:100F0000AF92BF92CF92DF92EF92FF920F931F9317
:100F1000CF93DF93CDB7DEB7CA1BDB0B0FB6F894C8
:100F2000DEBF0FBECDBF09942A88398848885F8408
:100F30006E847D848C849B84AA84B984C884DF8079
:100F4000EE80FD800C811B81AA81B981CE0FD11D5D
:100F50000FB6F894DEBF0FBECDBFED010895A1E23C
:100F60001A2EAA1BBB1BFD010DC0AA1FBB1FEE1F23
:100F7000FF1FA217B307E407F50720F0A21BB30B6E
:100F8000E40BF50B661F771F881F991F1A9469F7EA
:100F900060957095809590959B01AC01BD01CF0146
:100FA0000895A29FB001B39FC001A39F700D811D42
:100FB0001124911DB29F700D811D1124911D089562
:100FC000991B79E004C0991F961708F0961B881F9B
:100FD0007A95C9F780950895EE0FFF1F0590F4915B
:100FE000E02D09940F931F93CF93DF9382309105E7
:100FF00010F482E090E0E091DB01F091DC0120E070
:1010000030E0A0E0B0E0309719F1408151810281D9
:10101000138148175907C8F08417950769F410978A
:1010200031F012960C93129713961C9327C00093DD
:10103000DB011093DC0122C02115310519F04217A4
:10104000530718F49A01BD01EF01DF01F801DBCF6E
:1010500021153105F9F0281B390B2430310580F4B6
:101060008A819B816115710521F0FB019383828345
:1010700004C09093DC018093DB01FE01329644C0F2
:10108000FE01E20FF31F81939193225031093983BE
:1010900028833AC02091D9013091DA01232B41F401
:1010A00020911501309116013093DA012093D90176
:1010B00020911301309114012115310541F42DB710
:1010C0003EB74091170150911801241B350BE09158
:1010D000D901F091DA01E217F307A0F42E1B3F0BC0
:1010E0002817390778F0AC014E5F5F4F241735079A
:1010F00048F04E0F5F1F5093DA014093D90181935E
:10110000919302C0E0E0F0E0CF01DF91CF911F9119
:101110000F910895CF93DF93009709F481C0FC01EC
:10112000329713821282A091DB01B091DC011097FB
:1011300081F420813181820F931F2091D901309158
:10114000DA012817390751F5F093DA01E093D90154
:1011500067C0ED0120E030E0CE17DF0740F44A81A0
:101160005B819E0141155105F1F0EA01F5CFD38372
:10117000C28340815181840F951FC817D90759F444
:1011800088819981840F951F0296918380838A813B
:101190009B81938382832115310529F4F093DC012F
:1011A000E093DB013DC0E901FB83EA83499159915A
:1011B000C40FD51FEC17FD0761F480819181840F66
:1011C000951F0296E90199838883828193819B838D
:1011D0008A83E0E0F0E012968D919C91139700973E
:1011E00019F0FD01DC01F7CF8D919C9111979D01C4
:1011F0002E5F3F4F820F931F2091D9013091DA016A
:101200002817390769F4309729F41092DC011092FD
:10121000DB0102C013821282B093DA01A093D901DC
:10122000DF91CF910895A0E0B0E0E9E1F9E00C94FE
:101230007C07EC01009721F4CB010E94F207B4C0B7
:10124000FC01E60FF71F9C0122503109E217F3075A
:1012500008F4A8C0D9010D911C9111970617170722
:10126000B0F00530110508F49BC0C801049786173B
:10127000970708F495C002501109061B170B01933C
:1012800011936D937C93CF010E948A0889C05B0102
:10129000A01AB10A4C01800E911EA091DB01B09101
:1012A000DC01612C712CE12CF12C109709F446C063
:1012B0008D919C911197A815B905B1F56C0142E08B
:1012C000C40ED11CCA14DB0478F14C018A189B08A7
:1012D000640142E0C40ED11C1296BC901297139682
:1012E000AC91B5E0CB16D10440F0B282A3839182D9
:1012F0008082D9016D937C9309C00E5F1F4F800FD0
:10130000911FF90191838083EB2DFA2FE114F104F1
:1013100031F0D7011396FC93EE93129741C0F093EE
:10132000DC01E093DB013CC06816790608F43C015F
:101330007D0112960D90BC91A02DB7CF8091D9015F
:101340009091DA0188169906E1F466167706C8F4DA
:101350008091130190911401009741F48DB79EB7CD
:101360004091170150911801841B950BE817F9075C
:10137000C8F4F093DA01E093D901F9017183608335
:101380000FC0CB010E94F2077C01009759F0A80121
:10139000BE010E94D909CE010E948A08C70104C07B
:1013A000CE0102C080E090E0CDB7DEB7EEE00C9455
:1013B0009807FB01DC0102C001900D9241505040A2
:1013C000D8F70895FB01DC018D910190801901107F
:1013D000D9F3990B0895FB01DC0101900D920020D7
:1013E000E1F7089510E0C2E6D0E004C0FE010E94DB
:0E13F000EC072196C336D107C9F7F894FFCF5A
:1013FE0005060701020304313233343536373839E6
:10140E002A30230000DD01800000000000B702BB7F
:08141E0002BF0232303234003B
:00000001FF
