:100000000C9462000C948A000C948A000C948A0070
:100010000C948A000C948A000C948A000C948A0038
:100020000C948A000C948A000C948A000C9472033D
:100030000C948A000C948A000C948A000C948A0018
:100040000C94D0020C948A000C9440030C941A0374
:100050000C948A000C948A000C948A000C948A00F8
:100060000C948A000C948A000000000023002600F3
:10007000290000000000240027002A0000000000E2
:10008000250028002B0004040404040404040202D4
:100090000202020203030303030301020408102007
:1000A0004080010204081020010204081020000012
:1000B0000008000201000003040700000000000027
:1000C0000000780411241FBECFEFD8E0DEBFCDBF03
:1000D00011E0A0E0B1E0EAEDFFE002C005900D9272
:1000E000A231B107D9F721E0A2E1B1E001C01D9230
:1000F000A53EB207E1F710E0C2E6D0E004C02197C8
:10010000FE010E94E007C136D107C9F70E94D6045C
:100110000C94EB070C940000CF92DF92EF92FF92C9
:10012000DC01A03282E0B8070CF03EC0B7FD06C08B
:10013000A53BB1052CF0A4EBB0E002C0A0E0B0E01C
:100140008091E30128E830E06901C81AD10887FDF1
:10015000D394CC0CDD1CCC0CDD1C0D2C000CEE085B
:10016000FF088091E40128E532E0281B310987FD72
:100170003395220F331F220F331FA901330F660B54
:10018000770B9A01AB012C193D094E095F090E94BA
:100190006A0624EB30E040E050E00E944006C20EC8
:1001A000D31EE41EF51ED6019091E2019C3098F515
:1001B0008091E30148E850E0481B510987FD5395C1
:1001C000440F551F440F551FA417B5078CF080919D
:1001D000E40128E532E0281B310987FD3395220F21
:1001E000331F220F331FAD012A173B070CF4A9015F
:1001F00042505109440F551F2FB7F894892F90E0B2
:10020000FC01EE0FFF1F8E0F9F1FFC01E354FE4FFA
:10021000528341832FBFFF90EF90DF90CF900895DE
:1002200090E0FC01E255FF4F2491FC01E656FF4FA0
:100230003491FC01EA57FF4FE491EE2309F43CC0EE
:10024000222339F1233091F038F42130A9F0223003
:1002500001F584B58F7D12C0273091F02830A1F0D0
:100260002430B9F4809180008F7D03C0809180009C
:100270008F77809380000DC084B58F7784BD09C0CF
:100280008091B0008F7703C08091B0008F7D809304
:10029000B000F0E0EE0FFF1FE458FF4FA591B491BE
:1002A0009FB7F894611104C08C913095382302C037
:1002B000EC913E2B3C939FBF0895CF93DF9390E04A
:1002C000FC01E656FF4F2491FC01EA57FF4F849151
:1002D000882361F190E0880F991FFC01EE58FF4FD1
:1002E000C591D491FC01E458FF4FA591B4916111DF
:1002F00009C09FB7F8948881209582238883EC9168
:100300002E230BC0623061F49FB7F8948881322F9E
:10031000309583238883EC912E2B2C939FBF06C0AE
:100320008FB7F894E8812E2B28838FBFDF91CF9170
:1003300008953FB7F89480911C0190911D01A09100
:100340001E01B0911F0126B5A89B05C02F3F19F0D3
:100350000196A11DB11D3FBFBA2FA92F982F882745
:10036000820F911DA11DB11DBC01CD0142E0660FA0
:10037000771F881F991F4A95D1F70895CF92DF9272
:10038000EF92FF920F931F93CF93DF936C017A014B
:100390008B01C0E0D0E0CE15DF0581F0D8016D9172
:1003A0008D01D601ED91FC910190F081E02DC60107
:1003B0000995892B11F02196EECF7E01C701DF91BF
:1003C000CF911F910F91FF90EF90DF90CF90089504
:1003D000089580E090E00895FC01538D448D252F11
:1003E00030E0842F90E0821B930B541710F0CF96CF
:1003F000089501970895FC01918D828D981761F001
:10040000828DDF01A80FB11D5D968C91928D9F5F4B
:100410009F73928F90E008958FEF9FEF0895FC01F6
:10042000918D828D981731F0828DE80FF11D858DA9
:1004300090E008958FEF9FEF0895FC01918D228D3C
:10044000892F90E0805C9F4F821B91098F739927C1
:10045000089580E291E00E941D0221E0892B09F4B9
:1004600020E0822F0895FC01848DDF01A80FB11DCB
:10047000A35ABF4F2C91848D90E001968F739927DA
:10048000848FA689B7892C93A089B1898C918370B8
:1004900080648C93938D848D981306C00288F389B1
:1004A000E02D80818F7D80830895EF92FF920F93DE
:1004B0001F93CF93DF93EC0181E0888F9B8D8C8D10
:1004C000981305C0E889F989808185FD26C0F62E3C
:1004D0000B8D10E00F5F1F4F0F731127E02E8C8DD7
:1004E000E8120CC00FB607FCFACFE889F9898081C1
:1004F00085FFF5CFCE010E943302F1CF8B8DFE0137
:10050000E80FF11DE35AFF4FF0829FB7F8940B8F6D
:10051000EA89FB89808180620AC09FB7F894EE89DE
:10052000FF896083E889F989808183708064808392
:100530009FBF81E090E0DF91CF911F910F91FF90DD
:10054000EF900895CF93DF93EC01888D8823C9F055
:10055000EA89FB89808185FD05C0A889B9898C91CC
:1005600086FD0FC00FB607FCF5CF808185FFF2CF67
:10057000A889B9898C9185FFEDCFCE010E94330205
:10058000E7CFDF91CF91089580E090E0892B29F0AB
:100590000E94290281110C94000008950E94E60730
:1005A0001F920F920FB60F9211242F933F938F93A8
:1005B0009F93AF93BF938091180190911901A091DF
:1005C0001A01B0911B013091170123E0230F2D3741
:1005D00020F40196A11DB11D05C026E8230F029647
:1005E000A11DB11D2093170180931801909319014B
:1005F000A0931A01B0931B0180911C0190911D01E1
:10060000A0911E01B0911F010196A11DB11D809303
:100610001C0190931D01A0931E01B0931F01BF9177
:10062000AF919F918F913F912F910F900FBE0F909F
:100630001F9018951F920F920FB60F9211242F93AF
:100640003F934F935F936F937F938F939F93AF935A
:10065000BF93EF93FF9380E291E00E943302FF91FA
:10066000EF91BF91AF919F918F917F916F915F912A
:100670004F913F912F910F900FBE0F901F901895A3
:100680001F920F920FB60F9211242F938F939F9367
:10069000EF93FF93E0913001F09131018081E0917F
:1006A0003601F091370182FD12C0908180913901AD
:1006B0008F5F8F7320913A01821751F0E0913901D9
:1006C000F0E0E05EFE4F958F8093390101C080819C
:1006D000FF91EF919F918F912F910F900FBE0F90EF
:1006E0001F9018951F920F920FB60F9211242F93FF
:1006F0003F934F935F936F937F938F939F93AF93AA
:10070000BF93EF93FF938091120187FF05C0109272
:100710008500109284001BC020911201022E000C53
:10072000330B8091E10190E02817390784F4809120
:100730001201082E000C990BFC01EE0FFF1F8E0F0B
:100740009F1FFC01E354FE4F808186FD15C0809100
:1007500012018F5F8093120120911201022E000C72
:10076000330B8091E10190E028173907C4F48091A0
:1007700012018C3064F113C080911201082E000C1C
:10078000990BFC01EE0FFF1F8E0F9F1FFC01E3541E
:10079000FE4F808160E08F730E941001D8CF80915E
:1007A000840090918500049680349C4918F480E47C
:1007B0009CE905C0809184009091850004969093F7
:1007C0008900809388008FEF809312013BC02091B5
:1007D00084003091850080911201082E000C990B45
:1007E000FC01EE0FFF1F8E0F9F1FFC01E354FE4F15
:1007F00081819281820F931F90938900809388005A
:1008000080911201082E000C990BFC01EE0FFF1FC6
:100810008E0F9F1FFC01E354FE4F808186FF12C0A4
:1008200080911201082E000C990BFC01EE0FFF1FA6
:100830008E0F9F1FFC01E354FE4F808161E08F7398
:100840000E941001FF91EF91BF91AF919F918F9105
:100850007F916F915F914F913F912F910F900FBEBC
:100860000F901F901895CF92DF92EF92FF920F9307
:100870001F93E82FF92F05C00150110921093109F3
:1008800061F1908196239417B9F305C001501109C5
:100890002109310911F1908196239413F7CFC12CCE
:1008A000D12CE12CF12C0AC08FEFC81AD80AE80A23
:1008B000F80A0C151D052E053F0579F08081862369
:1008C000841791F36C2D7D2D8E2D9F2D1F910F91EF
:1008D000FF90EF90DF90CF90089560E070E080E0AF
:1008E00090E01F910F91FF90EF90DF90CF900895CF
:1008F000109223011092220188EE93E0A0E0B0E074
:100900008093240190932501A0932601B0932701A1
:1009100084E091E0909321018093200185EC90E0A8
:1009200090932D0180932C0184EC90E090932F0103
:1009300080932E0180EC90E0909331018093300100
:1009400081EC90E0909333018093320182EC90E04F
:10095000909335018093340186EC90E090933701B9
:10096000809336011092390110923A0110923B01A6
:1009700010923C018091E1018C30A0F491E0980F3D
:100980009093E1018093E20190E0FC01EE0FFF1FE4
:100990008E0F9F1FFC01E354FE4F88EB9BE0928378
:1009A000818308958FEF8093E2010895789484B550
:1009B000826084BD84B5816084BD85B5826085BD5B
:1009C00085B5816085BD80916E00816080936E00E9
:1009D00010928100809181008260809381008091DB
:1009E000810081608093810080918000816080938C
:1009F00080008091B10084608093B1008091B0004C
:100A000081608093B00080917A00846080937A0046
:100A100080917A00826080937A0080917A00816070
:100A200080937A0080917A00806880937A00109297
:100A3000C1008091E2018C3008F051C061E087E094
:100A40000E945D018091E201E82FF0E09F01220FFA
:100A5000331FE20FF31FE354FE4F9081907C9760A9
:100A600090831092E3011092E4016CE00E94D4079D
:100A70002CE0829FB001112440E050E09B01240F44
:100A8000351FF901EE0FFF1F2E0F3F1FF901E35431
:100A9000FE4F908196FD16C04F5F5F4F4C30510561
:100AA00069F781110FC01092800082E0809381006D
:100AB0001092850010928400B19A80916F0082603C
:100AC00080936F00E091E201F0E0CF01880F991F61
:100AD000E80FF91FE354FE4F80818064808361E05A
:100AE00082E00E945D0160E083E00E945D01E09190
:100AF0003001F091310182E08083E0912C01F0918E
:100B00002D0181E08083E0912E01F0912F0181E1A0
:100B1000808310923801E0913401F091350186E034
:100B20008083E0913201F091330180818061808384
:100B3000E0913201F0913301808188608083E091FF
:100B40003201F0913301808180688083E09132012D
:100B5000F091330180818F7D8083C3E0D0E023E278
:100B6000A22EB12C3DE9232E30E0332E49E8842E0D
:100B700040E0942E60E082E00E941001CE010197D7
:100B8000F1F761E082E00E941001C5010197F1F7E1
:100B900060E082E00E941001F1016491F40184910F
:100BA000E82FF0E0EE0FFF1FE859FF4F8591949179
:100BB00000E412E42FE030E0462F0E943304611578
:100BC00071058105910549F0DC01CB010196A11D5C
:100BD000B11DBC01CD019F7003C060E070E0CB018E
:100BE0000E94DB0626E933E44BE05DE30E943F0709
:100BF00020E030E040E05FE30E943F070E94A30650
:100C00006093130170931401809315019093160162
:100C1000673272408105910564F584EB90E00E9493
:100C20008C000E9499016B017C0188EE482E83E0C4
:100C3000582E612C712C0E949901DC01CB018C197A
:100C40009D09AE09BF09883E9340A105B10598F3FF
:100C500021E0421A51086108710888EEC80E83E04D
:100C6000D81EE11CF11C411451046104710419F7F0
:100C700004C080E090E00E948C000E94C4027ACF01
:100C8000052E97FB1EF400940E94570657FD07D0CF
:100C90000E94720607FC03D04EF40C945706509540
:100CA0004095309521953F4F4F4F5F4F0895909558
:100CB0008095709561957F4F8F4F9F4F08950E944B
:100CC0009406A59F900DB49F900DA49F800D911D3B
:100CD00011240895B7FF0C945F060E945F06821BE3
:100CE000930B0895A1E21A2EAA1BBB1BFD010DC098
:100CF000AA1FBB1FEE1FFF1FA217B307E407F507CC
:100D000020F0A21BB30BE40BF50B661F771F881FA7
:100D1000991F1A9469F760957095809590959B013D
:100D2000AC01BD01CF010895A29FB001B39FC001E6
:100D3000A39F700D811D1124911DB29F700D811D07
:100D40001124911D08950E94AA066894B1110C9473
:100D5000390708950E941E0788F09F5798F0B92F11
:100D60009927B751B0F0E1F0660F771F881F991FE0
:100D70001AF0BA95C9F714C0B13091F00E94380743
:100D8000B1E008950C943807672F782F8827B85F53
:100D900039F0B93FCCF3869577956795B395D9F738
:100DA0003EF490958095709561957F4F8F4F9F4F42
:100DB0000895E89409C097FB3EF49095809570954E
:100DC00061957F4F8F4F9F4F9923A9F0F92F96E997
:100DD000BB279395F695879577956795B795F1110C
:100DE000F8CFFAF4BB0F11F460FF1BC06F5F7F4FA9
:100DF0008F4F9F4F16C0882311F096E911C07723BB
:100E000021F09EE8872F762F05C0662371F096E8C3
:100E1000862F70E060E02AF09A95660F771F881F92
:100E2000DAF7880F9695879597F9089557FD9058AA
:100E3000440F551F59F05F3F71F04795880F97FB9E
:100E4000991F61F09F3F79F0879508951216130658
:100E50001406551FF2CF4695F1DF08C01616170687
:100E60001806991FF1CF86957105610508940895BC
:100E7000E894BB2766277727CB0197F908950E944E
:100E800052070C94C3070E94B50738F00E94BC07B4
:100E900020F0952311F00C94AC070C94B2071124A8
:100EA0000C9439070E94160770F3959FC1F3950FB4
:100EB00050E0551F629FF001729FBB27F00DB11DDE
:100EC000639FAA27F00DB11DAA1F649F6627B00D6E
:100ED000A11D661F829F2227B00DA11D621F739F57
:100EE000B00DA11D621F839FA00D611D221F749F65
:100EF0003327A00D611D231F849F600D211D822FAC
:100F0000762F6A2F11249F5750409AF0F1F08823D2
:100F10004AF0EE0FFF1FBB1F661F771F881F9150FF
:100F20005040A9F79E3F510580F00C94AC070C94FB
:100F300039075F3FE4F3983ED4F38695779567953C
:100F4000B795F795E7959F5FC1F7FE2B880F911D29
:100F50009695879597F9089597F99F6780E870E0CF
:100F600060E008959FEF80EC089500240A9416161F
:100F7000170618060906089500240A941216130687
:100F8000140605060895092E0394000C11F4882315
:100F900052F0BB0F40F4BF2B11F460FF04C06F5F31
:100FA0007F4F8F4F9F4F0895991B79E004C0991F81
:100FB000961708F0961B881F7A95C9F780950895B3
:100FC000EE0FFF1F0590F491E02D099481E090E071
:0A0FD000F8940C94EB07F894FFCF9F
:100FDA00000000005502BE01EC01A2021D02FB0145
:020FEA000F02F4
:00000001FF
