:020000040000FA
:100000000C9462000C948A000C948A000C948A0070
:100010000C948A000C948A000C948A000C948A0038
:100020000C948A000C948A000C948A000C94680545
:100030000C948A000C948A000C948A000C948A0018
:100040000C94C6040C948A000C9436050C9410058C
:100050000C948A000C948A000C948A000C948A00F8
:100060000C948A000C948A000000000023002600F3
:10007000290000000000240027002A0000000000E2
:10008000250028002B0004040404040404040202D4
:100090000202020203030303030301020408102007
:1000A0004080010204081020010204081020000012
:1000B0000008000201000003040700000000000027
:1000C0000000690611241FBECFEFD8E0DEBFCDBF10
:1000D00011E0A0E0B1E0E8E8F4E102C005900D9283
:1000E000A435B107D9F722E0A4E5B1E001C01D9223
:1000F000AB33B207E1F710E0C2E6D0E004C02197CD
:10010000FE010E943C0AC136D107C9F70E94F106E0
:100110000C94420A0C9400008F929F92AF92BF926F
:10012000FF920F931F93CF93DF93F09038022BE051
:100130002F1508F44CC020913A0208E512E0021B8A
:10014000110927FD1395000F111F000F111F20919A
:100150003902C8E8D0E0C21BD10927FDD395CC0FE6
:10016000DD1FCC0FDD1F4E010D2E000CAA08BB08B1
:100170009801012E000C440B550B281939094A0926
:100180005B09DC010E94C60824EB30E040E050E04F
:100190000E949C08820E931EA41EB51E8C169D06FE
:1001A0002CF0E801801691060CF4E4012297CC0FA4
:1001B000DD1F2FB7F8948F2D90E0FC01EE0FFF1F8D
:1001C000E80FF91FE550FE4FD283C1832FBFDF91A7
:1001D000CF911F910F91FF90BF90AF909F908F9004
:1001E000089590E0FC01E255FF4F2491FC01E65692
:1001F000FF4F3491FC01EA57FF4FE491EE23C9F021
:10020000222339F0233001F1A8F4213019F12230F2
:1002100029F1F0E0EE0FFF1FE458FF4FA591B491D4
:100220008FB7F894EC91611126C030953E233C9332
:100230008FBF08952730A9F02830C9F0243049F73E
:10024000809180008F7D03C0809180008F778093A4
:100250008000DFCF84B58F7784BDDBCF84B58F7D01
:10026000FBCF8091B0008F778093B000D2CF809188
:10027000B0008F7DF9CF3E2BDACFCF93DF9390E0A4
:10028000FC01E656FF4F24918A579F4FFC01849151
:100290008823D1F090E0880F991FFC01EE58FF4FA2
:1002A000A591B491FC01E458FF4FC591D49161111F
:1002B0000EC09FB7F8948C91E22FE0958E238C931B
:1002C0002881E223E8839FBFDF91CF9108958FB704
:1002D000F894EC91E22BEC938FBFF6CF3FB7F894F4
:1002E00080915A0190915B01A0915C01B0915D01F8
:1002F00026B5A89B05C02F3F19F00196A11DB11D81
:100300003FBFBA2FA92F982F8827BC01CD01620FBC
:10031000711D811D911D42E0660F771F881F991F77
:100320004A95D1F708958F929F92AF92BF92CF9244
:10033000DF92EF92FF924B015C010E946E016B0114
:100340007C010E946E016C197D098E099F09683E2F
:10035000734081059105A8F321E0821A9108A10854
:10036000B10888EEC80E83E0D81EE11CF11C811490
:100370009104A104B10429F7FF90EF90DF90CF9092
:10038000BF90AF909F908F900895AF92BF92CF9201
:10039000DF92EF92FF920F931F93CF93DF936C0145
:1003A0007B018B01040F151FEB015E01AE18BF0826
:1003B000C017D10759F06991D601ED91FC910190D8
:1003C000F081E02DC6010995892B79F7C501DF91F0
:1003D000CF911F910F91FF90EF90DF90CF90BF9042
:1003E000AF900895FC01538D448D252F30E0842F6C
:1003F00090E0821B930B541710F0CF96089501974D
:100400000895FC01918D828D981761F0A28DAE0F39
:10041000BF2FB11D5D968C91928D9F5F9F73928FC0
:1004200090E008958FEF9FEF0895FC01918D828DEC
:10043000981731F0828DE80FF11D858D90E00895B9
:100440008FEF9FEF0895FC01918D228D892F90E011
:10045000805C9F4F821B91098F73992708958EE5C9
:1004600091E00E94230221E0892B09F420E0822FF1
:10047000089580E090E0892B29F00E942F028111DD
:100480000C9400000895FC01A48DA80FB92FB11D94
:10049000A35ABF4F2C91848D90E001968F739927BA
:1004A000848FA689B7892C93A089B1898C91837098
:1004B00080648C93938D848D981306C00288F38991
:1004C000E02D80818F7D80830895EF92FF920F93BE
:1004D0001F93CF93DF93EC0181E0888F9B8D8C8DF0
:1004E00098131AC0E889F989808185FF15C09FB7E4
:1004F000F894EE89FF896083E889F98980818370A7
:10050000806480839FBF81E090E0DF91CF911F9155
:100510000F91FF90EF900895F62E0B8D10E00F5F76
:100520001F4F0F731127E02E8C8D8E110CC00FB64C
:1005300007FCFACFE889F989808185FFF5CFCE01E4
:100540000E944302F1CFEB8DEC0FFD2FF11DE35A1A
:10055000FF4FF0829FB7F8940B8FEA89FB89808167
:100560008062CFCFCF93DF93EC01888D8823B9F0E1
:10057000AA89BB89E889F9898C9185FD03C08081AE
:1005800086FD0DC00FB607FCF7CF8C9185FFF2CF2B
:10059000808185FFEDCFCE010E944302E9CFDF913C
:1005A000CF910895089590E080E00895CF93DF9370
:1005B000EC0160E08E810E94F10061E08E810E947A
:1005C000F10060E08E810E94F1008BE891E00197DC
:1005D000F1F7DF91CF910895CF92DF92EF92FF92E2
:1005E0000F931F93CF93DF936C017C0187E0E80E9C
:1005F000F11CD0E0C0E0062F10E0B8010C2E02C0C4
:10060000759567950A94E2F76170F70181917F0112
:100610000E94F1002196C430D10579F7C601DF911F
:10062000CF911F910F91FF90EF90DF90CF900C949E
:10063000D602CF92DF92EF92FF920F931F93CF9348
:10064000DF93EC01F62E642F8C810E94F1008D81E6
:100650008F3F19F060E00E94F1000F2D10E08F85B0
:1006600084FF25C06E0187E0C80ED11CF12CE12C5F
:10067000B8010E2C02C0759567950A94E2F7617077
:10068000F60181916F010E94F100FFEFEF1AFF0A5E
:1006900088E0E816F10461F7CE01DF91CF911F9158
:1006A0000F91FF90EF90DF90CF900C94D602B8019D
:1006B00084E0759567958A95E1F7CE010E94EC027A
:1006C0006F2DCE01DF91CF911F910F91FF90EF9091
:1006D000DF90CF900C94EC0240E0682F80E292E033
:1006E0000C941903CF93DF93823029F490912F0259
:1006F000986090932F02809333021092340280E42A
:100700008093350280E18093360280E58093370242
:1007100061E0809124020E943D01809125028F3F7B
:1007200019F061E00E943D0161E0809126020E9483
:100730003D01C0E2D2E09E012052324080912F0262
:1007400084FD0BC084E090E021962817390744F41B
:1007500061E08E810E943D01EECF88E090E0F4CF11
:100760008BE39DE00197F1F760E0809124020E9405
:10077000F10060E0809126020E94F1008091250244
:100780008F3F19F060E00E94F10080912F0284FDFC
:1007900039C063E080E292E00E94EC02CBE4D6E450
:1007A000CE010197F1F763E080E292E00E94EC0253
:1007B0002197F1F763E080E292E00E94EC0283E58A
:1007C00092E00197F1F762E080E292E00E94EC0291
:1007D00080912F0280620E946C0384E0809330023B
:1007E0008CE00E946C0381E00E946C038BE39FE12C
:1007F0000197F1F782E08093310286E0DF91CF919B
:100800000C946C0380620E946C038BE496E4019765
:10081000F1F780912F0280620E946C0383E592E0E1
:100820000197F1F780912F0280620E946C03D0CF74
:1008300090913302891710F08FEF890FE82FF0E0C5
:10084000E05EFD4F848980680C946C0341E00E9457
:10085000190381E090E00895FB0101900020E9F781
:100860003197AF01461B570BDC01ED91FC910280E3
:10087000F381E02D09944F925F926F927F928F9255
:100880009F92AF92BF92CF92DF92EF92FF920F931F
:100890001F93CF93DF93CDB7DEB7A1970FB6F89430
:1008A000DEBF0FBECDBF8C016B01770FEE08FF08D6
:1008B000F7FE49C0DC01ED91FC910190F081E02D43
:1008C0006DE209955C0122273327A9012C193D0906
:1008D0004E095F0919A2FE01B1967F019AE0492EE7
:1008E000512C612C712CCA01B901A30192010E9403
:1008F000CE08605DD7016E937D012115310541055C
:10090000510589F790E080E0109721F0BD01C80102
:100910000E942C048A0D9B1DA1960FB6F894DEBF91
:100920000FBECDBFDF91CF911F910F91FF90EF9040
:10093000DF90CF90BF90AF909F908F907F906F90FF
:100940005F904F900895A701960119A2FE01B196FC
:100950007F018AE0882E912CA12CB12CCA01B9010B
:10096000A50194010E94CE08605DD7016E937D01C0
:10097000211531054105510589F790E080E0109778
:1009800059F2BD01C8010E942C04C6CF1F920F92DC
:100990000FB60F9211242F933F938F939F93AF9392
:1009A000BF938091560190915701A0915801B09149
:1009B00059013091550123E0230F2D3758F5019649
:1009C000A11DB11D209355018093560190935701AD
:1009D000A0935801B093590180915A0190915B0105
:1009E000A0915C01B0915D010196A11DB11D8093A4
:1009F0005A0190935B01A0935C01B0935D01BF919C
:100A0000AF919F918F913F912F910F900FBE0F90BB
:100A10001F90189526E8230F0296A11DB11DD2CF75
:100A20001F920F920FB60F9211242F933F934F9363
:100A30005F936F937F938F939F93AF93BF93EF9346
:100A4000FF938EE591E00E944302FF91EF91BF91E9
:100A5000AF919F918F917F916F915F914F913F9156
:100A60002F910F900FBE0F901F9018951F920F920D
:100A70000FB60F9211242F938F939F93EF93FF93B1
:100A8000E0916E01F0916F018081E0917401F0912D
:100A9000750182FD1BC09081809177018F5F8F73FC
:100AA00020917801821741F0E0917701F0E0E25A5D
:100AB000FE4F958F80937701FF91EF919F918F91DA
:100AC0002F910F900FBE0F901F9018958081F4CF3B
:100AD0001F920F920FB60F9211242F933F934F93B3
:100AE0005F936F937F938F939F93AF93BF93CF93B6
:100AF000DF93EF93FF9380915401C0911F02D0E0E8
:100B000087FF24C0109285001092840080915401C8
:100B10008F5F8093540180915401082E000C990B33
:100B20008C179D0724F4809154018C30C4F180917E
:100B3000840090918500049680349C4908F47AC022
:100B40008091840090918500049676C08091540134
:100B5000082E000C990B8C179D07C4F6E0915401E8
:100B60008E2FEE0F990BFC01EE0FFF1FE80FF91F00
:100B7000E550FE4F808186FFC9CFE09154018E2F52
:100B8000EE0F990BFC01EE0FFF1FE80FF91FE55068
:100B9000FE4F808160E08F730E94F100B7CF2091FB
:100BA000840030918500E09154018E2FEE0F990B57
:100BB000FC01EE0FFF1FE80FF91FE550FE4F81818A
:100BC0009281820F931F9093890080938800E09117
:100BD00054018E2FEE0F990BFC01EE0FFF1FE80F53
:100BE000F91FE550FE4F808186FF11C0E09154014E
:100BF0008E2FEE0F990BFC01EE0FFF1FE80FF91F70
:100C0000E550FE4F808161E08F730E94F100FF91FB
:100C1000EF91DF91CF91BF91AF919F918F917F9194
:100C20006F915F914F913F912F910F900FBE0F9059
:100C30001F90189580E49CE9909389008093880028
:100C40008FEF80935401E3CFCF92DF92EF92FF9228
:100C50000F931F93E82FF92F05C0015011092109A7
:100C6000310961F1908196239417B9F305C00150C1
:100C700011092109310911F1908196239413F7CFBD
:100C8000C12CD12CE12CF12C0AC08FEFC81AD80A44
:100C9000E80AF80A0C151D052E053F0579F080813C
:100CA0008623841791F36C2D7D2D8E2D9F2D1F9102
:100CB0000F91FF90EF90DF90CF90089560E070E08B
:100CC00080E090E01F910F91FF90EF90DF90CF9028
:100CD0000895109261011092600188EE93E0A0E007
:100CE000B0E08093620190936301A0936401B0939C
:100CF000650184E091E090935F0180935E0185EC53
:100D000090E090936B0180936A0184EC90E0909363
:100D10006D0180936C0180EC90E090936F01809363
:100D20006E0181EC90E0909371018093700182ECF0
:100D300090E0909373018093720186EC90E0909321
:100D400075018093740110927701109278011092CE
:100D5000790110927A0180911F028C30F0F591E0B8
:100D6000980F90931F028093380290E0FC01EE0FE1
:100D7000FF1FE80FF91FE550FE4F88EB9BE09283C1
:100D80008183109223021092220286E191E09093D7
:100D90002102809320028CE0809324028FEF8093C5
:100DA00025028BE08093260285E08093270284E071
:100DB0008093280283E08093290282E080932A02B4
:100DC00010922B0210922C0210922D0210922E02E1
:100DD00010922F0281E00C9472038FEF80933802FF
:100DE000D0CF789484B5826084BD84B5816084BDA1
:100DF00085B5826085BD85B5816085BD80916E00B9
:100E0000816080936E0010928100809181008260E9
:100E10008093810080918100816080938100809126
:100E200080008160809380008091B1008460809315
:100E3000B1008091B00081608093B00080917A0011
:100E4000846080937A0080917A00826080937A0037
:100E500080917A00816080937A0080917A00806826
:100E600080937A001092C10082E00E947203809108
:100E700038028C3008F051C061E089E00E943D01E9
:100E800080913802282F30E0F901EE0FFF1FE20FAA
:100E9000F31FE550FE4F9081907C996090831092F3
:100EA000390210923A022CE0622F0E94300A829F8F
:100EB000B001112430E020E0AB01420F531FFA01D2
:100EC000EE0FFF1FE40FF51FE550FE4F908196FDDA
:100ED00016C02F5F3F4F2C30310571F781110FC0C5
:100EE0001092800082E08093810010928500109221
:100EF0008400B19A80916F00826080936F00E091CE
:100F000038028E2F90E0FC01EE0FFF1FE80FF91F53
:100F1000E550FE4F808180648083E0916E01F09106
:100F20006F0182E08083E0916A01F0916B01108291
:100F3000E0916C01F0916D018FEC8083109276014D
:100F4000E0917201F091730186E08083E09170017D
:100F5000F0917101808180618083E0917001F09156
:100F60007101808188608083E0917001F09171014E
:100F7000808180688083E0917001F09171018081AF
:100F80008F7D8083C4EAD0E090E9E92E90E0F92ECD
:100F90002BE3A22E2FE1B22E30E0C32E30E0D32E71
:100FA00061E08DE00E943D0160E08AE00E943D0129
:100FB00060E08DE00E94F10068EC70E080E090E07D
:100FC0000E94930161E08DE00E94F10068EE73E001
:100FD00080E090E00E94930160E08DE00E94F100CB
:100FE000FE016491F7018491E82FF0E0EE0FFF1FFE
:100FF000E859FF4F8591949100E412E42FE030E02E
:10100000462F0E942406611571058105910529F07E
:101010006F5F7F4F8F4F9F4F9F700E94370926E968
:1010200033E44BE05DE30E949B0920E030E040E0C8
:101030005FE30E949B090E94FF082B016932710542
:101040004CF180E00E9418046EE171E080E292E0D1
:101050000E942C0481E00E9418046AE271E080E2A0
:1010600092E00E942C04B20180E292E00E943B04D4
:101070006EE471E080E292E00E942C04C114D1047D
:1010800009F48ECF0E942F02882309F489CF0E9491
:10109000000086CF6B3171058CF380E00E9418044C
:1010A00065E371E080E292E00E942C0481E00E94FE
:1010B00018046AE271E080E292E00E942C0461E090
:1010C00070E080E292E00E943B046EE471E080E216
:1010D00092E00E942C0468EE73E080E090E00E94B1
:1010E000930181E00E946C03C5010197F1F788E745
:1010F00090E00E948C0060ED77E080E090E00E943C
:10110000930190E080E00E948C0062E471E08EE543
:1011100091E00E942C0461E070E08EE591E00E9475
:101120003B046DE471E08EE591E00E942C0461E5E2
:1011300071E08EE591E0A0CF052E97FB1EF40094A0
:101140000E94B30857FD07D00E94CE0807FC03D0C9
:101150004EF40C94B30850954095309521953F4F2F
:101160004F4F5F4F089590958095709561957F4F93
:101170008F4F9F4F08950E94F008A59F900DB49F38
:10118000900DA49F800D911D11240895B7FF0C941C
:10119000BB080E94BB08821B930B0895A1E21A2E84
:1011A000AA1BBB1BFD010DC0AA1FBB1FEE1FFF1F0B
:1011B000A217B307E407F50720F0A21BB30BE40B5B
:1011C000F50B661F771F881F991F1A9469F76095A2
:1011D0007095809590959B01AC01BD01CF0108955C
:1011E000A29FB001B39FC001A39F700D811D112468
:1011F000911DB29F700D811D1124911D08950E94B3
:1012000006096894B1110C94950908950E947A0911
:1012100088F09F5798F0B92F9927B751B0F0E1F0B7
:10122000660F771F881F991F1AF0BA95C9F714C067
:10123000B13091F00E949409B1E008950C949409A2
:10124000672F782F8827B85F39F0B93FCCF38695A0
:1012500077956795B395D9F73EF4909580957095FD
:1012600061957F4F8F4F9F4F0895E89409C097FB7A
:101270003EF490958095709561957F4F8F4F9F4F6D
:101280009923A9F0F92F96E9BB279395F6958795B1
:1012900077956795B795F111F8CFFAF4BB0F11F474
:1012A00060FF1BC06F5F7F4F8F4F9F4F16C088231B
:1012B00011F096E911C0772321F09EE8872F762F51
:1012C00005C0662371F096E8862F70E060E02AF092
:1012D0009A95660F771F881FDAF7880F969587957E
:1012E00097F9089557FD9058440F551F59F05F3FE7
:1012F00071F04795880F97FB991F61F09F3F79F038
:1013000087950895121613061406551FF2CF4695B9
:10131000F1DF08C0161617061806991FF1CF86953B
:101320007105610508940895E894BB27662777271F
:10133000CB0197F908950E94AE090C941F0A0E94F0
:10134000110A38F00E94180A20F0952311F00C942D
:10135000080A0C940E0A11240C9495090E94720933
:1013600070F3959FC1F3950F50E0551F629FF001F8
:10137000729FBB27F00DB11D639FAA27F00DB11D11
:10138000AA1F649F6627B00DA11D661F829F22279A
:10139000B00DA11D621F739FB00DA11D621F839F21
:1013A000A00D611D221F749F3327A00D611D231FF7
:1013B000849F600D211D822F762F6A2F11249F5745
:1013C00050409AF0F1F088234AF0EE0FFF1FBB1F48
:1013D000661F771F881F91505040A9F79E3F510507
:1013E00080F00C94080A0C9495095F3FE4F3983E52
:1013F000D4F3869577956795B795F795E7959F5FB1
:10140000C1F7FE2B880F911D9695879597F9089542
:1014100097F99F6780E870E060E008959FEF80ECA7
:10142000089500240A94161617061806090608954A
:1014300000240A9412161306140605060895092EB0
:101440000394000C11F4882352F0BB0F40F4BF2B1F
:1014500011F460FF04C06F5F7F4F8F4F9F4F08955F
:10146000991B79E004C0991F961708F0961B881FF6
:101470007A95C9F780950895EE0FFF1F0590F491B6
:10148000E02D0994F894FFCF000000006502C5012B
:10149000F201B2022302010215020000000026043C
:1014A000C501D302D202434F4D4520434C4F534513
:1014B000520044495354414E43453A2000504C4554
:1014C00041534520454E5445520044697374616E42
:0C14D00063653A200020636D000D0A00E7
:107E0000112484B714BE81FFF0D085E080938100F7
:107E100082E08093C00088E18093C10086E0809377
:107E2000C20080E18093C4008EE0C9D0259A86E02C
:107E300020E33CEF91E0309385002093840096BBD3
:107E4000B09BFECF1D9AA8958150A9F7CC24DD24C4
:107E500088248394B5E0AB2EA1E19A2EF3E0BF2EE7
:107E6000A2D0813461F49FD0082FAFD0023811F036
:107E7000013811F484E001C083E08DD089C08234E0
:107E800011F484E103C0853419F485E0A6D080C0E4
:107E9000853579F488D0E82EFF2485D0082F10E0AE
:107EA000102F00270E291F29000F111F8ED06801E7
:107EB0006FC0863521F484E090D080E0DECF843638
:107EC00009F040C070D06FD0082F6DD080E0C81688
:107ED00080E7D80618F4F601B7BEE895C0E0D1E017
:107EE00062D089930C17E1F7F0E0CF16F0E7DF06D8
:107EF00018F0F601B7BEE89568D007B600FCFDCFD4
:107F0000A601A0E0B1E02C9130E011968C91119780
:107F100090E0982F8827822B932B1296FA010C0160
:107F200087BEE89511244E5F5F4FF1E0A038BF0790
:107F300051F7F601A7BEE89507B600FCFDCF97BE46
:107F4000E89526C08437B1F42ED02DD0F82E2BD052
:107F50003CD0F601EF2C8F010F5F1F4F84911BD097
:107F6000EA94F801C1F70894C11CD11CFA94CF0C13
:107F7000D11C0EC0853739F428D08EE10CD085E9AC
:107F80000AD08FE07ACF813511F488E018D01DD067
:107F900080E101D065CF982F8091C00085FFFCCF94
:107FA0009093C60008958091C00087FFFCCF809118
:107FB000C00084FD01C0A8958091C6000895E0E648
:107FC000F0E098E1908380830895EDDF803219F02E
:107FD00088E0F5DFFFCF84E1DECF1F93182FE3DFCA
:107FE0001150E9F7F2DF1F91089580E0E8DFEE27F6
:047FF000FF270994CA
:027FFE00040479
:00000001FF
