:020000040000FA
:100000000C9462000C948A000C948A000C948A0070
:100010000C948A000C948A000C948A000C948A0038
:100020000C948A000C948A000C948A000C948A0028
:100030000C948A000C948A000C948A000C948A0018
:100040000C94BD040C948A000C948B040C946504ED
:100050000C948A000C948A000C948A000C948A00F8
:100060000C948A000C948A000000000024002700F1
:100070002A0000000000250028002B0000000000DE
:1000800023002600290004040404040404040202DA
:100090000202020203030303030301020408102007
:1000A0004080010204081020010204081020000012
:1000B0000008000201000003040700000000000027
:1000C0000000070511241FBECFEFD8E0DEBFCDBF73
:1000D00021E0AEE2B1E001C01D92A23FB207E1F71C
:1000E00011E0A0E0B1E0E2E7FEE002C005900D9271
:1000F000AE32B107D9F710E0C2E6D0E004C02197D4
:10010000FE010E943107C136D107C9F70E946B0575
:100110000C9437070C940000AF92BF92CF92DF92FD
:10012000EF92FF920F931F93CF93DF936C017B01AC
:100130008B01040F151FEB015E01AE18BF08C0173D
:10014000D10759F06991D601ED91FC910190F081B0
:10015000E02DC6010995892B79F7C501DF91CF9173
:100160001F910F91FF90EF90DF90CF90BF90AF90D5
:100170000895FC01538D448D252F30E0842F90E0AD
:10018000821B930B541710F0CF9608950197089592
:10019000FC01918D828D981761F0A28DAE0FBF2F5B
:1001A000B11D5D968C91928D9F5F9F73928F90E0B1
:1001B00008958FEF9FEF0895FC01918D828D981720
:1001C00031F0828DE80FF11D858D90E008958FEF5D
:1001D0009FEF0895FC01918D228D892F90E0805C26
:1001E0009F4F821B91098F739927089587E391E0B0
:1001F0000E94EA0021E0892B09F420E0822F089573
:1002000080E090E0892B29F00E94F60081110C9487
:1002100000000895FC01A48DA80FB92FB11DA35AA9
:10022000BF4F2C91848D90E001968F739927848F16
:10023000A689B7892C93A089B1898C918370806439
:100240008C93938D848D981306C00288F389E02DDA
:1002500080818F7D80830895EF92FF920F931F938B
:10026000CF93DF93EC0181E0888F9B8D8C8D981369
:100270001AC0E889F989808185FF15C09FB7F89475
:10028000EE89FF896083E889F989808183708064C1
:1002900080839FBF81E090E0DF91CF911F910F910C
:1002A000FF90EF900895F62E0B8D10E00F5F1F4F1B
:1002B0000F731127E02E8C8D8E110CC00FB607FC2A
:1002C000FACFE889F989808185FFF5CFCE010E94B8
:1002D0000A01F1CFEB8DEC0FFD2FF11DE35AFF4F1B
:1002E000F0829FB7F8940B8FEA89FB898081806246
:1002F000CFCFCF93DF93EC01888D8823B9F0AA8903
:10030000BB89E889F9898C9185FD03C0808186FDD0
:100310000DC00FB607FCF7CF8C9185FFF2CF80811F
:1003200085FFEDCFCE010E940A01E9CFDF91CF9189
:100330000895833081F028F4813099F08230A9F05B
:1003400008958730A9F08830C9F08430B1F48091E5
:1003500080008F7D03C0809180008F778093800024
:10036000089584B58F7784BD089584B58F7DFBCFC4
:100370008091B0008F778093B00008958091B00095
:100380008F7DF9CFCF93DF93282F30E0F901E2552D
:10039000FF4F8491F901E656FF4FD491F901EA57D6
:1003A000FF4FC491CC23A1F081110E949901EC2F41
:1003B000F0E0EE0FFF1FE458FF4FA591B491EC91D0
:1003C000ED2381E090E009F480E0DF91CF91089582
:1003D00080E090E0FACF1F93CF93DF93282F30E097
:1003E000F901E255FF4F8491F901E656FF4FD49190
:1003F000F901EA57FF4FC491CC23A9F0162F8111C0
:100400000E949901EC2FF0E0EE0FFF1FEE58FF4F16
:10041000A591B4918FB7F894EC91111108C0D095C3
:10042000DE23DC938FBFDF91CF911F910895DE2BE8
:10043000F8CFCF93DF9390E0FC01E656FF4F249175
:100440008A579F4FFC0184918823D1F090E0880F58
:10045000991FFC01E859FF4FA591B491FC01EE589A
:10046000FF4FC591D49161110EC09FB7F8948C9144
:10047000E22FE0958E238C932881E223E8839FBFAF
:10048000DF91CF9108958FB7F894EC91E22BEC9324
:100490008FBFF6CF3FB7F89480912F019091300134
:1004A000A0913101B091320126B5A89B05C02F3F24
:1004B00019F00196A11DB11D3FBFBA2FA92F982F8A
:1004C0008827BC01CD01620F711D811D911D42E085
:1004D000660F771F881F991F4A95D1F708958F924D
:1004E0009F92AF92BF92CF92DF92EF92FF926B01F9
:1004F0007C010E944A024B015C01C114D104E10459
:10050000F104B9F00E944A02681979098A099B0925
:10051000683E73408105910580F321E0C21AD1083D
:10052000E108F10888EE880E83E0981EA11CB11C3A
:10053000E4CFFF90EF90DF90CF90BF90AF909F906F
:100540008F900895089590E080E008958F929F9293
:10055000AF92BF920F931F93CF93DF93CDB7DEB7C8
:10056000A1970FB6F894DEBF0FBECDBF19A24230DF
:1005700008F44AE08E010F5D1F4F842E912CB12CA0
:10058000A12CA50194010E940F07E62FB901CA0111
:10059000EA3044F5E05DD801EE938D01232B242B46
:1005A000252B79F790E080E0109769F0FD0101902C
:1005B0000020E9F73197AF014A1B5B0BBD018AEDC3
:1005C00091E00E948C00A1960FB6F894DEBF0FBE9A
:1005D000CDBFDF91CF911F910F91BF90AF909F90B2
:1005E0008F900895E95CD7CFFC0101900020E9F7D6
:1005F0003197AF01481B590BBC018AED91E00C9477
:100600008C00CF93DF93EC0160E08E810E94EB01C0
:1006100061E08E810E94EB0160E08E810E94EB011F
:100620008BE891E00197F1F7DF91CF910895CF9298
:10063000DF92EF92FF920F931F93CF93DF936C01A2
:100640007C0187E0E80EF11CD0E0C0E0062F10E04E
:10065000B8010C2E02C0759567950A94E2F7617097
:10066000F70181917F010E94EB012196C430D105F1
:1006700079F7C601DF91CF911F910F91FF90EF9015
:10068000DF90CF900C940103CF92DF92EF92FF9214
:100690000F931F93CF93DF93EC01F62E642F8C8181
:1006A0000E94EB018D818F3F19F060E00E94EB0109
:1006B0000F2D10E08F8584FF25C06E0187E0C80EE6
:1006C000D11CF12CE12CB8010E2C02C07595679558
:1006D0000A94E2F76170F60181916F010E94EB01CB
:1006E000FFEFEF1AFF0A88E0E816F10461F7CE0188
:1006F000DF91CF911F910F91FF90EF90DF90CF90FE
:100700000C940103B80184E0759567958A95E1F72B
:10071000CE010E9417036F2DCE01DF91CF911F9163
:100720000F91FF90EF90DF90CF900C94170340E073
:10073000682F8AED91E00C944403CF93DF938230CD
:1007400029F49091E90198609093E9018093ED017B
:100750001092EE0180E48093EF0180E18093F0013C
:1007600080E58093F10161E08091DE010E94190231
:100770008091DF018F3F19F061E00E94190261E072
:100780008091E0010E941902CAEDD1E09E012A5D2C
:1007900031408091E90184FD0BC084E090E0219616
:1007A0002817390744F461E08E810E941902EECFC8
:1007B00088E090E0F4CF8BE39DE00197F1F760E0F3
:1007C0008091DE010E94EB0160E08091E0010E94D7
:1007D000EB018091DF018F3F19F060E00E94EB0197
:1007E0008091E90184FD39C063E08AED91E00E94C7
:1007F0001703CBE4D6E4CE010197F1F763E08AED6D
:1008000091E00E9417032197F1F763E08AED91E0F0
:100810000E94170383E592E00197F1F762E08AED09
:1008200091E00E9417038091E90180620E94970382
:1008300084E08093EA018CE00E94970381E00E94AB
:1008400097038BE39FE10197F1F782E08093EB013F
:1008500086E0DF91CF910C94970380620E9497030A
:100860008BE496E40197F1F78091E90180620E94A0
:10087000970383E592E00197F1F78091E9018062A7
:100880000E949703D0CF41E00E94440381E090E0B2
:100890000895CF92DF92EF92FF926B017C0141E0CD
:1008A0006DE28AED91E00E94440366277727CB0131
:1008B0006C197D098E099F094AE00E94A6020196E3
:1008C000FF90EF90DF90CF9008951F920F920FB698
:1008D0000F9211242F933F934F935F936F937F93C6
:1008E0008F939F93AF93BF93EF93FF9387E391E031
:1008F0000E940A01FF91EF91BF91AF919F918F915B
:100900007F916F915F914F913F912F910F900FBE0B
:100910000F901F9018951F920F920FB60F921124EF
:100920002F938F939F93EF93FF93E0914701F09163
:1009300048018081E0914D01F0914E0182FD1BC084
:100940009081809150018F5F8F73209151018217A8
:1009500041F0E0915001F0E0E95CFE4F958F80930B
:100960005001FF91EF919F918F912F910F900FBEAA
:100970000F901F9018958081F4CF1F920F920FB6A1
:100980000F9211242F933F938F939F93AF93BF9315
:100990008091330190913401A0913501B0913601DD
:1009A00030912E0123E0230F2D3758F50196A11D1C
:1009B000B11D20932E018093330190933401A093B5
:1009C0003501B093360180912F0190913001A091B3
:1009D0003101B09132010196A11DB11D80932F010B
:1009E00090933001A0933101B0933201BF91AF9148
:1009F0009F918F913F912F910F900FBE0F901F905D
:100A0000189526E8230F0296A11DB11DD2CFCF93D2
:100A1000DF93E7E3F1E01382128288EE93E0A0E037
:100A2000B0E084839583A683B78384E091E09183CB
:100A3000808385EC90E09587848784EC90E09787AD
:100A4000868780EC90E0918B808B81EC90E0938B9B
:100A5000828B82EC90E0958B848B86EC90E0978B78
:100A6000868B118E128E138E148EEAEDF1E01382B6
:100A7000128286E191E0918380838CE084838FEF02
:100A800085838BE0868385E0878384E0808783E0AD
:100A9000818786E0828713861486158616861786D8
:100AA00081E00E949D03C4EDD1E082E090E0998353
:100AB000888384EF91E0A0E0B0E08A839B83AC83DD
:100AC000BD8361E082E00E94190261E08881DF91CC
:100AD000CF910C94EB01CF93DF9300D000D01F9205
:100AE000CDB7DEB7789484B5826084BD84B581606B
:100AF00084BD85B5826085BD85B5816085BD8091E9
:100B00006E00816080936E00109281008091810060
:100B10008260809381008091810081608093810058
:100B2000809180008160809380008091B10084601A
:100B30008093B1008091B00081608093B00080917B
:100B40007A00846080937A0080917A00826080933A
:100B50007A0080917A00816080937A0080917A0097
:100B6000806880937A001092C100E0914701F09173
:100B7000480182E08083E0914301F09144011082BA
:100B8000E0914501F09146018FEC808310924F0176
:100B9000E0914B01F0914C0186E08083E0914901A6
:100BA000F0914A01808180618083E0914901F09158
:100BB0004A01808188608083E0914901F0914A0177
:100BC000808180688083E0914901F0914A018081B1
:100BD0008F7D808382E00E949D039BE3892E992470
:100BE00093943E0126E0620E711C23E7222E312CE5
:100BF00082E00E94C2017C0182E00E94C2018C015D
:100C00006091D6017091D7018091D8019091D9015E
:100C10000E946F0261E08091D4010E94190260E09D
:100C20008091D4010E94EB0162E170E080E090E0ED
:100C30000E946F0261E08091D4010E94EB018BE978
:100C400090E00197F1F760E08091D4010E941902D1
:100C50008FB7F894A0903301B0903401C090350163
:100C6000D09036018FBF8091D4010E94C2010197BC
:100C700009F06EC02FB7F894809133019091340140
:100C8000A0913501B09136012FBF8A199B09AC099B
:100C9000BD09893E9340A105B10528F3E1E08091AB
:100CA000ED018111E0E0E195F0E0E652FE4F84892C
:100CB00080680E9497038EE191E00E94F402B701E0
:100CC000FF0C880B990B97FFA0C00E94490484E297
:100CD00091E00E94F402E091ED01E23008F099C049
:100CE000E150F0E0E652FE4F848980680E9497034D
:100CF00086E291E00E94F402B801110F880B990B73
:100D000097FF89C00E9449048CE291E00E94F4029E
:100D100068EE73E080E090E00E946F0281E00E9444
:100D200097038BE39FE10197F1F768EE73E080E0B2
:100D300090E00E946F0280E090E0892B09F458CF88
:100D40000E94F600882309F453CF0E94000050CF80
:100D50008091D4010E94C201892B09F09FCFC40168
:100D60000197F1F78091D4010E94C201019709F027
:100D700095CFC4010197F1F7CE0101965C0187E0A0
:100D8000C82ED12C512C8091D4010E94C201892BF4
:100D9000D1F3C1010197F1F78091D4010E94C20102
:100DA0008130910531F40C2C01C0880F0A94EAF7C8
:100DB000582A8091D4010E94C2010197D1F391E099
:100DC000C91AD10800F7F50151925F01FDEF5F16D6
:100DD00009F464CF6A147B0491F6498150E02B81B9
:100DE00030E0ED818A81840F952F911DBC01620F47
:100DF000731F8C81860F972F911D9927E81719066D
:100E000009F04CCF8A01790149CF4AE00E94A6023D
:100E10005ECFE1E066CF4AE00E94A60275CFA1E274
:100E20001A2EAA1BBB1BFD010DC0AA1FBB1FEE1F64
:100E3000FF1FA217B307E407F50720F0A21BB30BAF
:100E4000E40BF50B661F771F881F991F1A9469F72B
:100E500060957095809590959B01AC01BD01CF0187
:100E60000895EE0FFF1F0590F491E02D0994F8947A
:100E7000FFCF000000002C018C00B9007901EA00CE
:100E8000C800DC000000000043048C00A302A202A2
:100E900054656D703A00430048756D693A0025004D
:107E0000112484B714BE81FFF0D085E080938100F7
:107E100082E08093C00088E18093C10086E0809377
:107E2000C20080E18093C4008EE0C9D0259A86E02C
:107E300020E33CEF91E0309385002093840096BBD3
:107E4000B09BFECF1D9AA8958150A9F7CC24DD24C4
:107E500088248394B5E0AB2EA1E19A2EF3E0BF2EE7
:107E6000A2D0813461F49FD0082FAFD0023811F036
:107E7000013811F484E001C083E08DD089C08234E0
:107E800011F484E103C0853419F485E0A6D080C0E4
:107E9000853579F488D0E82EFF2485D0082F10E0AE
:107EA000102F00270E291F29000F111F8ED06801E7
:107EB0006FC0863521F484E090D080E0DECF843638
:107EC00009F040C070D06FD0082F6DD080E0C81688
:107ED00080E7D80618F4F601B7BEE895C0E0D1E017
:107EE00062D089930C17E1F7F0E0CF16F0E7DF06D8
:107EF00018F0F601B7BEE89568D007B600FCFDCFD4
:107F0000A601A0E0B1E02C9130E011968C91119780
:107F100090E0982F8827822B932B1296FA010C0160
:107F200087BEE89511244E5F5F4FF1E0A038BF0790
:107F300051F7F601A7BEE89507B600FCFDCF97BE46
:107F4000E89526C08437B1F42ED02DD0F82E2BD052
:107F50003CD0F601EF2C8F010F5F1F4F84911BD097
:107F6000EA94F801C1F70894C11CD11CFA94CF0C13
:107F7000D11C0EC0853739F428D08EE10CD085E9AC
:107F80000AD08FE07ACF813511F488E018D01DD067
:107F900080E101D065CF982F8091C00085FFFCCF94
:107FA0009093C60008958091C00087FFFCCF809118
:107FB000C00084FD01C0A8958091C6000895E0E648
:107FC000F0E098E1908380830895EDDF803219F02E
:107FD00088E0F5DFFFCF84E1DECF1F93182FE3DFCA
:107FE0001150E9F7F2DF1F91089580E0E8DFEE27F6
:047FF000FF270994CA
:027FFE00040479
:00000001FF
