:020000040000FA
:100000000C9462000C948A000C948A000C948A0070
:100010000C948A000C948A000C948A000C948A0038
:100020000C948A000C948A000C948A000C948A0028
:100030000C948A000C948A000C948A000C948A0018
:100040000C9465050C948A000C9433050C940D05F2
:100050000C948A000C948A000C948A000C948A00F8
:100060000C948A000C948A000000000024002700F1
:100070002A0000000000250028002B0000000008D6
:10008000000201000003040700000000000000005F
:1000900000000000230026002900040404040404D6
:1000A0000404020202020202030303030303010227
:1000B00004081020408001020408102001020408F6
:1000C0001020AF0511241FBECFEFD8E0DEBFCDBF9B
:1000D00011E0A0E0B1E0E8E1F3E102C005900D928B
:1000E000A434B107D9F722E0A4E4B1E001C01D9225
:1000F000A531B207E1F710E0C2E6D0E004C02197D5
:10010000FE010E948409C136D107C9F70E941A0670
:100110000C948A090C940000CF92DF92EF92FF9228
:10012000CF93DF93B091F101A0E08111AB2F8091CB
:10013000F20190E0880F991FAC0140575F4FC090CB
:10014000F701D090F801E090F901F090FA0130E069
:1001500020E0FA01C591D491E881B90190E080E0F6
:10016000EB23EA130AC02F5F3F4F6C157D058E0508
:100170009F0578F36FEF7FEFCB01DF91CF91FF9079
:10018000EF90DF90CF900895FC01538D448D252F83
:1001900030E0842F90E0821B930B541710F0CF9621
:1001A000089501970895FC01918D828D981761F053
:1001B000A28DAE0FBF2FB11D5D968C91928D9F5F6A
:1001C0009F73928F90E008958FEF9FEF0895FC0149
:1001D000918D828D981731F0828DE80FF11D858DFC
:1001E00090E008958FEF9FEF0895FC01918D228D8F
:1001F000892F90E0805C9F4F821B91098F73992714
:100200000895FC01A48DA80FB92FB11DA35ABF4FAB
:100210002C91848D90E001968F739927848FA68905
:10022000B7892C93A089B1898C91837080648C9359
:10023000938D848D981306C00288F389E02D808108
:100240008F7D80830895EF92FF920F931F93CF933A
:10025000DF93EC0181E0888F9B8D8C8D98131AC001
:10026000E889F989808185FF15C09FB7F894EE89E8
:10027000FF896083E889F989808183708064808345
:100280009FBF81E090E0DF91CF911F910F91FF9090
:10029000EF900895F62E0B8D10E00F5F1F4F0F7338
:1002A0001127E02E8C8D8E110CC00FB607FCFACFF3
:1002B000E889F989808185FFF5CFCE010E9401018F
:1002C000F1CFEB8DEC0FFD2FF11DE35AFF4FF082C4
:1002D0009FB7F8940B8FEA89FB8980818062CFCF2A
:1002E000CF93DF93EC01888D8823B9F0AA89BB896D
:1002F000E889F9898C9185FD03C0808186FD0DC058
:100300000FB607FCF7CF8C9185FFF2CF808185FF78
:10031000EDCFCE010E940101E9CFDF91CF91089589
:100320008DE491E00E94F50021E0892B09F420E0A2
:10033000822F089580E090E0892B29F00E9490019F
:1003400081110C9400000895AF92BF92CF92DF927A
:10035000EF92FF920F931F93CF93DF936C017B017A
:100360008B01040F151FEB015E01AE18BF08C0170B
:10037000D10759F06991D601ED91FC910190F0817E
:10038000E02DC6010995892B79F7C501DF91CF9141
:100390001F910F91FF90EF90DF90CF90BF90AF90A3
:1003A000089590E0FC01E458FF4F2491FC01E255D0
:1003B000FF4F3491FC01E656FF4FE491EE23C9F064
:1003C000222339F0233001F1A8F4213019F1223031
:1003D00029F1F0E0EE0FFF1FEE58FF4FA591B49109
:1003E0008FB7F894EC91611126C030953E233C9371
:1003F0008FBF08952730A9F02830C9F0243049F77D
:10040000809180008F7D03C0809180008F778093E2
:100410008000DFCF84B58F7784BDDBCF84B58F7D3F
:10042000FBCF8091B0008F778093B000D2CF8091C6
:10043000B0008F7DF9CF3E2BDACFCF93DF9390E0E2
:10044000FC01E255FF4F249186569F4FFC01849199
:100450008823D1F090E0880F991FFC01E859FF4FE5
:10046000A591B491FC01EE58FF4FC591D491623033
:1004700071F49FB7F8943C91822F809583238C93DD
:10048000E8812E2B28839FBFDF91CF9108958FB7EE
:10049000F894EC912E2B2C938FBFF6CF3FB7F894A6
:1004A0008091450190914601A0914701B09148018A
:1004B00026B5A89B05C02F3F19F00196A11DB11DBF
:1004C0003FBFBA2FA92F982F8827BC01CD01620FFB
:1004D000711D811D911D42E0660F771F881F991FB6
:1004E0004A95D1F708958F929F92AF92BF92CF9283
:1004F000DF92EF92FF924B015C010E944E026B0172
:100500007C010E944E026C197D098E099F09683E8C
:10051000734081059105A8F321E0821A9108A10892
:10052000B10888EEC80E83E0D81EE11CF11C8114CE
:100530009104A104B10429F7FF90EF90DF90CF90D0
:10054000BF90AF909F908F900895CF92DF92EF92DF
:10055000FF920F931F93CF93DF93CDB7DEB7C054B5
:10056000D1400FB6F894DEBF0FBECDBF2FB7F894C1
:100570008091490190914A01A0914B01B0914C01A9
:100580002FBF4091F3015091F4016091F5017091FA
:10059000F6018C019D01041B150B260B370BB901CD
:1005A000A801403D57406105710590F48091FB0121
:1005B000C05CDE4F0FB6F894DEBF0FBECDBFDF913B
:1005C000CF911F910F91FF90EF90DF90CF90089502
:1005D0008093F3019093F401A093F501B093F60199
:1005E0001092EE011092ED011092EC011092EB01CD
:1005F0001092EA0162E08091EF010E941D0261E029
:1006000070E080E090E00E94730261E08091EF0171
:100610000E941D0260E08091EF010E94D101809153
:10062000F0018551823020F58BE291E10197F1F7DD
:1006300062E08091EF010E941D028091FC0190E038
:100640008230910538F0880F991F880F991F059700
:100650000197F1F7F89480E00E948C006F3F7F4F84
:100660008F4F9F4F61F41092FB01789480E0A0CFF0
:1006700064E170E080E090E00E947302D9CF81E0F5
:100680000E948C006F3F7F4F8F4F9F4F61F38E0111
:100690000F5F1F4F6E018FEBC81A8EEFD80A7801DB
:1006A00080E00E948C00F7016083718382839383D2
:1006B00081E00E948C00F7016483758386839783B1
:1006C000F8E0EF0EF11CEC14FD0451F7789430E0E3
:1006D00020E0F801C080D180E280F3804481558120
:1006E00066817781FFEFCF16DF06EF06FF0631F058
:1006F0004F3F8FEF58076807780719F41092FB01F6
:10070000B5CFF90183E0F595E7958A95E1F7E651D4
:10071000FE4F8081880FC416D506E606F70610F155
:1007200080832F5F3F4F085F1F4F2832310589F6C6
:100730004091EE012091EA018091EB01280F3327CF
:10074000331F8091EC01280F311D8091ED01820F44
:10075000932F911D99274817190681F681E0809300
:10076000FB0126CF8160DCCF089590E080E0089502
:10077000FC0101900020E9F73197AF01481B590BAC
:10078000BC018DEF91E00C94A401CF93DF93EC01B9
:1007900060E08E810E94D10161E08E810E94D101D2
:1007A00060E08E810E94D1018BE891E00197F1F722
:1007B000DF91CF910895CF92DF92EF92FF920F9346
:1007C0001F93CF93DF936C017C0187E0E80EF11C4F
:1007D000D0E0C0E0062F10E0B8010C2E02C07595E5
:1007E00067950A94E2F76170F70181917F010E9499
:1007F000D1012196C430D10579F7C601DF91CF919F
:100800001F910F91FF90EF90DF90CF900C94C50354
:10081000CF92DF92EF92FF920F931F93CF93DF93CC
:10082000EC01F62E642F8C810E94D1018D818F3FC7
:1008300019F060E00E94D1010F2D10E08F8584FF38
:1008400025C06E0187E0C80ED11CF12CE12CB80147
:100850000E2C02C0759567950A94E2F76170F60157
:1008600081916F010E94D101FFEFEF1AFF0A88E02A
:10087000E816F10461F7CE01DF91CF911F910F913E
:10088000FF90EF90DF90CF900C94C503B80184E007
:10089000759567958A95E1F7CE010E94DB036F2D70
:1008A000CE01DF91CF911F910F91FF90EF90DF90DC
:1008B000CF900C94DB0340E0682F8DEF91E00C9417
:1008C0000804CF93DF93823029F490910C02986052
:1008D00090930C02809310021092110280E4809396
:1008E000120280E18093130280E58093140261E09C
:1008F000809101020E941D02809102028F3F19F037
:1009000061E00E941D0261E0809103020E941D02CD
:10091000CDEFD1E09E012D5F314080910C0284FD2E
:100920000BC084E090E021962817390744F461E079
:100930008E810E941D02EECF88E090E0F4CF8BE321
:100940009DE00197F1F760E0809101020E94D101E2
:1009500060E0809103020E94D101809102028F3FEA
:1009600019F060E00E94D10180910C0284FD39C031
:1009700063E08DEF91E00E94DB03CBE4D6E4CE018F
:100980000197F1F763E08DEF91E00E94DB0321977F
:10099000F1F763E08DEF91E00E94DB0383E592E0E5
:1009A0000197F1F762E08DEF91E00E94DB03809107
:1009B0000C0280620E945B0484E080930D028CE054
:1009C0000E945B0481E00E945B048BE39FE101973E
:1009D000F1F782E080930E0286E0DF91CF910C94D4
:1009E0005B0480620E945B048BE496E40197F1F75C
:1009F00080910C0280620E945B0483E592E0019783
:100A0000F1F780910C0280620E945B04D0CF41E03C
:100A10000E94080481E090E008951F920F920FB6A3
:100A20000F9211242F933F934F935F936F937F9374
:100A30008F939F93AF93BF93EF93FF938DE491E0D8
:100A40000E940101FF91EF91BF91AF919F918F9112
:100A50007F916F915F914F913F912F910F900FBEBA
:100A60000F901F9018951F920F920FB60F9211249E
:100A70002F938F939F93EF93FF93E0915D01F091FC
:100A80005E018081E0916301F091640182FD1BC0F1
:100A90009081809166018F5F8F732091670182172B
:100AA00041F0E0916601F0E0E35BFE4F958F8093AB
:100AB0006601FF91EF919F918F912F910F900FBE43
:100AC0000F901F9018958081F4CF1F920F920FB650
:100AD0000F9211242F933F938F939F93AF93BF93C4
:100AE0008091490190914A01A0914B01B0914C0134
:100AF0003091440123E0230F2D3758F50196A11DB5
:100B0000B11D209344018093490190934A01A09321
:100B10004B01B0934C018091450190914601A09109
:100B20004701B09148010196A11DB11D8093450177
:100B300090934601A0934701B0934801BF91AF91B4
:100B40009F918F913F912F910F900FBE0F901F900B
:100B5000189526E8230F0296A11DB11DD2CFEDE412
:100B6000F1E01382128288EE93E0A0E0B0E084838B
:100B70009583A683B78384E291E09183808385EC9B
:100B800090E09587848784EC90E09787868780EC57
:100B900090E0918B808B81EC90E0938B828B82EC48
:100BA00090E0958B848B86EC90E0978B868B118EF2
:100BB000128E138E148EEDEFF1E01382128286E313
:100BC00091E09183808387E084838FEF858386E043
:100BD000868385E0878384E0808783E0818782E065
:100BE00082871386148615861686178681E00E94F2
:100BF0006104AAEEB1E088E015968C9315978BE01E
:100C000016968C931697E6EBF0E0E4911796EC932A
:100C10001797E2EAF0E0E4911896EC93189740E811
:100C20005EE360E070E01D964D935D936D937C9361
:100C300050970895789484B5826084BD84B58160AE
:100C400084BD85B5826085BD85B5816085BD809197
:100C50006E00816080936E0010928100809181000F
:100C60008260809381008091810081608093810007
:100C7000809180008160809380008091B1008460C9
:100C80008093B1008091B00081608093B00080912A
:100C90007A00846080937A0080917A0082608093E9
:100CA0007A0080917A00816080937A0080917A0046
:100CB000806880937A001092C10082E00E946104F3
:100CC00062E08091EF010E941D022FB7F89480919D
:100CD000490190914A01A0914B01B0914C012FBF65
:100CE000805D9740A109B1098093F3019093F401CD
:100CF000A093F501B093F60187E38093FC010BE329
:100D00001FE19AE0F92EC0E0D0E02FEDE22E68EE70
:100D100073E080E090E00E9473020E94A5028823A5
:100D200049F08091F0018B3028F08D3040F08551F2
:100D30008230A8F160E070E080EC9FE71CC0609119
:100D4000EB0170E090E080E00E9456082DEC3CEC56
:100D50004CEC5DE30E94E2084B015C016091EA010A
:100D600070E090E080E00E9456089B01AC01C50154
:100D7000B4010E94B9070E942508D62E0E94A50240
:100D8000882341F08091F0018C3009F49AC0C8F4B6
:100D90008B3081F160E070E080EC9FE753C06091A0
:100DA000EA017091EB0176276727762790E080E0D3
:100DB0000E9454082DEC3CEC4CEC5DE30E94E208F0
:100DC000DACF8551823030F7C090EC016C2D70E0A5
:100DD000762F662766277F778091ED01682B90E05C
:100DE00080E00E9454082DEC3CEC4CEC5DE30E944A
:100DF000E20883C06091EC0170E090E080E00E9426
:100E000054084B015C01C090ED01C7FE0AC0AC0163
:100E10009B0160E070E080E89FEB0E94B8074B0107
:100E20005C016C2D6F7070E090E080E00E945608CD
:100E30002DEC3CEC4CEC5DE30E94E208A501940132
:100E40000E94B9070E942508C62E6D2D70E090E023
:100E500080E00E9454089B01AC010E944F0981115F
:100E60000DC06C2D70E090E080E00E9454089B0162
:100E7000AC010E944F09882309F443C081E00E941D
:100E80005B04C8010197F1F7E1E080911002811144
:100E9000E0E0E195F0E0E350FE4F84898B5F8068ED
:100EA0000E945B048EE391E00E94B803209709F44E
:100EB0002ECF0E949001882309F429CF0E940000C0
:100EC00026CFC090EC016C2D70E090E080E00E9495
:100ED00054084B015C016091ED016F7070E090E08F
:100EE00080E00E9456082DEC3CEC4CEC5DE30E9447
:100EF000E208A50194010E94B907C7FEA3CF90584C
:100F0000A1CF8C2D6F2D0E947809805D80931701F1
:100F1000905D90931801E0921B018D2D0E9478093D
:100F2000805D80930701905D90930801E1E08091DE
:100F300010028111E0E0E195F0E0E350FE4F84897A
:100F400080680E945B0480E191E00E94B803E09118
:100F50001002E23058F4E150F0E0E350FE4F848993
:100F600080680E945B0480E091E09ECFE1E0F4CFD6
:100F70005058BB27AA270E94D0070C94A8080E94AB
:100F80009A0838F00E94A10820F039F49F3F19F424
:100F900026F40C9497080EF4E095E7FB0C94910866
:100FA000E92F0E94B90858F3BA176207730784073C
:100FB000950720F079F4A6F50C94DB080EF4E09583
:100FC0000B2EBA2FA02D0B01B90190010C01CA0103
:100FD000A0011124FF27591B99F0593F50F4503EAE
:100FE00068F11A16F040A22F232F342F4427585FA0
:100FF000F3CF469537952795A795F0405395C9F7B8
:101000007EF41F16BA0B620B730B840BBAF091506F
:10101000A1F0FF0FBB1F661F771F881FC2F70EC00E
:10102000BA0F621F731F841F48F4879577956795E1
:10103000B795F7959E3F08F0B0CF9395880F08F0CD
:101040009927EE0F9795879508950E94C10888F01B
:101050009F5798F0B92F9927B751B0F0E1F0660F7C
:10106000771F881F991F1AF0BA95C9F714C0B130BD
:1010700091F00E94DB08B1E008950C94DB08672F23
:10108000782F8827B85F39F0B93FCCF386957795EC
:101090006795B395D9F73EF49095809570956195D5
:1010A0007F4F8F4F9F4F0895E89409C097FB3EF400
:1010B00090958095709561957F4F8F4F9F4F9923A5
:1010C000A9F0F92F96E9BB279395F6958795779523
:1010D0006795B795F111F8CFFAF4BB0F11F460FFE3
:1010E0001BC06F5F7F4F8F4F9F4F16C0882311F03B
:1010F00096E911C0772321F09EE8872F762F05C04F
:10110000662371F096E8862F70E060E02AF09A95E9
:10111000660F771F881FDAF7880F9695879597F9DE
:10112000089597F99F6780E870E060E008959FEF69
:1011300080EC089500240A9416161706180609066E
:10114000089500240A94121613061406050608953D
:10115000092E0394000C11F4882352F0BB0F40F4C5
:10116000BF2B11F460FF04C06F5F7F4F8F4F9F4F05
:10117000089557FD9058440F551F59F05F3F71F087
:101180004795880F97FB991F61F09F3F79F08795EE
:101190000895121613061406551FF2CF4695F1DF77
:1011A00008C0161617061806991FF1CF8695710507
:1011B000610508940895E894BB2766277727CB013B
:1011C00097F908950E94F5080C94A8080E949A08BF
:1011D00038F00E94A10820F0952311F00C9491089A
:1011E0000C94970811240C94DC080E94B90870F341
:1011F000959FC1F3950F50E0551F629FF001729FBC
:10120000BB27F00DB11D639FAA27F00DB11DAA1FCA
:10121000649F6627B00DA11D661F829F2227B00D17
:10122000A11D621F739FB00DA11D621F839FA00DA2
:10123000611D221F749F3327A00D611D231F849FF2
:10124000600D211D822F762F6A2F11249F57504049
:101250009AF0F1F088234AF0EE0FFF1FBB1F661FC4
:10126000771F881F91505040A9F79E3F510580F08D
:101270000C9491080C94DC085F3FE4F3983ED4F39F
:10128000869577956795B795F795E7959F5FC1F731
:10129000FE2B880F911D9695879597F908950E94CA
:1012A0005409880B990B0895990F0008550FAA0B44
:1012B000E0E8FEEF16161706E807F907C0F0121669
:1012C0001306E407F50798F0621B730B840B950B6C
:1012D00039F40A2661F0232B242B252B21F40895C1
:1012E0000A2609F4A140A6958FEF811D811D08955E
:1012F000991B79E004C0991F961708F0961B881F68
:101300007A95C9F780950895EE0FFF1F0590F49127
:10131000E02D0994F894FFCF52482020203D203042
:10132000302E30202520200054656D70203D203067
:10133000302E302043202000000000002301A401B3
:10134000C4007001F500D300E700000000000705AD
:0C135000A401B503B4034572726F720073
:107E0000112484B714BE81FFF0D085E080938100F7
:107E100082E08093C00088E18093C10086E0809377
:107E2000C20080E18093C4008EE0C9D0259A86E02C
:107E300020E33CEF91E0309385002093840096BBD3
:107E4000B09BFECF1D9AA8958150A9F7CC24DD24C4
:107E500088248394B5E0AB2EA1E19A2EF3E0BF2EE7
:107E6000A2D0813461F49FD0082FAFD0023811F036
:107E7000013811F484E001C083E08DD089C08234E0
:107E800011F484E103C0853419F485E0A6D080C0E4
:107E9000853579F488D0E82EFF2485D0082F10E0AE
:107EA000102F00270E291F29000F111F8ED06801E7
:107EB0006FC0863521F484E090D080E0DECF843638
:107EC00009F040C070D06FD0082F6DD080E0C81688
:107ED00080E7D80618F4F601B7BEE895C0E0D1E017
:107EE00062D089930C17E1F7F0E0CF16F0E7DF06D8
:107EF00018F0F601B7BEE89568D007B600FCFDCFD4
:107F0000A601A0E0B1E02C9130E011968C91119780
:107F100090E0982F8827822B932B1296FA010C0160
:107F200087BEE89511244E5F5F4FF1E0A038BF0790
:107F300051F7F601A7BEE89507B600FCFDCF97BE46
:107F4000E89526C08437B1F42ED02DD0F82E2BD052
:107F50003CD0F601EF2C8F010F5F1F4F84911BD097
:107F6000EA94F801C1F70894C11CD11CFA94CF0C13
:107F7000D11C0EC0853739F428D08EE10CD085E9AC
:107F80000AD08FE07ACF813511F488E018D01DD067
:107F900080E101D065CF982F8091C00085FFFCCF94
:107FA0009093C60008958091C00087FFFCCF809118
:107FB000C00084FD01C0A8958091C6000895E0E648
:107FC000F0E098E1908380830895EDDF803219F02E
:107FD00088E0F5DFFFCF84E1DECF1F93182FE3DFCA
:107FE0001150E9F7F2DF1F91089580E0E8DFEE27F6
:047FF000FF270994CA
:027FFE00040479
:00000001FF
